:020000040800F2
:1000000000BB0020ED010008297A0008696D000896
:10001000257A0008390C0008BDBA0008000000006D
:10002000000000000000000000000000F58700084C
:10003000350D0008000000002D7A0008F98700083F
:10004000070200080702000807020008070200086C
:10005000070200080702000807020008070200085C
:10006000070200080702000807020008C90C000880
:10007000D50C0008E10C0008ED0C0008F90C000894
:10008000050D0008110D000807020008070200080E
:1000900065B9000807020008070200080702000807
:1000A000070200080702000807020008070200080C
:1000B00007020008070200080702000807020008FC
:1000C00007020008070200080702000807020008EC
:1000D00007020008DD9C000807020008070200086C
:1000E00007020008070200080702000807020008CC
:1000F00007020008070200080702000807020008BC
:1001000007020008070200080702000807020008AB
:10011000070200080702000807020008070200089B
:10012000290D00080702000807020008070200085E
:10013000070200080702000807020008070200087B
:10014000070200080702000807020008070200086B
:10015000070200080702000807020008070200085B
:10016000070200080702000807020008070200084B
:10017000070200080702000807020008070200083B
:10018000070200080702000807020008070200082B
:10019000070200080000000007020008070200082C
:1001A000070200080702000807020008997100080A
:1001B00007020008070200080702000807020008FB
:1001C0001D0D0008070200080702000807020008CA
:1001D0000702000807020008DFF80CD000F094FBCB
:1001E00000480047C5BC000800BB00200648804707
:1001F00006480047FEE7FEE7FEE7FEE7FEE7FEE70C
:10020000FEE7FEE7FEE7FEE76D880008D90100087B
:100210002DE9F05F0546002092469B46884606463B
:10022000814640241BE0284641464746224600F0CE
:1002300083FA53465A46C01A914110D311461846C4
:10024000224600F06AFA2D1A67EB01084F46224653
:100250000120002100F061FA17EB00094E41201E39
:10026000A4F10104DFDC484631462A464346BDE896
:10027000F09F40EA01039B0703D009E008C9121F61
:1002800008C0042AFAD203E011F8013B00F8013B50
:10029000521EF9D27047D2B201E000F8012B491E7C
:1002A000FBD270470022F6E710B513460A46044613
:1002B0001946FFF7F0FF204610BD421C10F8011B45
:1002C0000029FBD1801A70472DE9FE4F804681EA54
:1002D0000300C00F0C46009021F0004123F00045C0
:1002E000B8EB0200A94105D24046214690461C4683
:1002F0000B46024623F00040104347D0270DC7F3BA
:100300000A00C3F30A510290401A019040286BDAA8
:10031000C3F3130040F4801B0098924620B10023E1
:10032000D2EB030A63EB0B0B01985946C0F1400274
:10033000504600F0F2F906460D4650465946019ADD
:1003400000F00AFA10EB08006141002487EA11521C
:1003500084EAE7731A4340D0009A62B3019A012AF3
:100360004FEA075215DC001B61EB02014FF000421F
:1003700002EA0752CDE90042001C41F580113246E5
:100380002B4600F00AFA03B0BDE8F08F4046214644
:10039000F9E7001B61EB0201001C41F58013001816
:1003A0005B412018A2F5001747EB030140EAD57026
:1003B000B6196D4111E06D084FEA360645EAC07581
:1003C0004FEA0752001B61EB0201001C41F580114E
:1003D00049084FEA30000019514132462B4603B01C
:1003E000BDE8F04F00F0CAB9009801224000002398
:1003F000D0EB020263EBE073009821464FEAE07411
:10040000B8EB000061EB0401E9E783F000435BE730
:1004100081F0004158E72DE9FE4F81EA030404F022
:10042000004421F0004100944FF0000B23F0004302
:1004300050EA01045ED052EA03045BD0C3F30A54CD
:10044000C1F30A552C44A4F2F3340194A0FB0254E6
:10045000C1F3130141F48011C3F3130343F4801378
:1004600001FB024400FB034E840A970A44EA8154CC
:1004700047EA8357A4FB076802958D0A05FB0785A9
:100480004FEA932C04FB0C542705029D4FEA0658B3
:1004900047EA1637B5EB08056EEB070C870E920E90
:1004A00047EA811742EA8312A7FB0201B6EB0B0170
:1004B00064EB00042B0D43EA0C335E1844EB1C5034
:1004C000DA465146E7FB0201C5F313044FEA0B334A
:1004D00043EA14534FEA0432019C43EA0603A4F1B1
:1004E0000C040294009CCDE900B400F056F903B06E
:1004F000BDE8F08F00200146F9E72DE9F04D81EAD3
:10050000030404F0004B21F0004514464FF0000AAC
:1005100023F0004150EA050220D054EA01021DD028
:10052000C5F30A570246C5F31303C1F31300C1F321
:100530000A5640F4801543F48013A7EB0608101BFD
:10054000D64608F2FD3873EB050002D308F1010826
:1005500001E092185B41B8F1000F03DA0020014678
:10056000BDE8F08D00204FF48011064684460EE071
:10057000171B73EB050705D3121B63EB050306433B
:100580004CEA010C49084FEA300092185B4150EAEE
:100590000107EDD152EA030012D082EA040083EA97
:1005A0000501084305D0101BAB4106D201220023F0
:1005B00006E000224FF0004302E06FF0010253100A
:1005C0001AEB06004CEB085110EB0A0041EB0B0153
:1005D000BDE8F04D00F0D2B830B5041E71F1000452
:1005E00004DB4FF00044404264EB0101141E73F140
:1005F000000405DB1C464FF00043524263EB04034A
:10060000801A994101D3012030BD002030BD30B5A2
:10061000041E71F1000404DB4FF00044404264EB1F
:100620000101141E73F1000405DB1C464FF000436A
:10063000524263EB0403101A8B4101D3012030BDF9
:10064000002030BD30B5041E71F1000404DB4FF012
:100650000044404264EB0101141E73F1000405DB09
:100660001C464FF00043524263EB0403801A994149
:1006700001D2012030BD002030BD30B5041E71F123
:10068000000404DB4FF00044404264EB0101141EFF
:1006900073F1000405DB1C464FF00043524263EB4C
:1006A000040342404B401A4301D0002030BD0120DA
:1006B00030BD0EB5C10F80EAE0700844CA070021C2
:1006C00040F233438DE80E000A460B4600F065F811
:1006D00003B000BD0EB540F2334102910021CDE9D7
:1006E00000110A460B4600F058F803B000BD30B5C3
:1006F0000B46014600202022012409E021FA02F5E0
:100700009D4205D303FA02F5491B04FA02F5284479
:10071000151EA2F10102F1DC30BD202A04DB203AD3
:1007200000FA02F1002070479140C2F1200320FA44
:1007300003F3194390407047202A04DB203A21FA42
:1007400002F00021704721FA02F3D040C2F12002EA
:100750009140084319467047202A06DBCB17203A00
:1007600041FA02F043EAE07306E041FA02F3D040B6
:10077000C2F12002914008431946704710B5141E7B
:1007800073F1000408DA401C41F1000192185B414A
:100790001A4301D120F0010010BD2DE9F04D924621
:1007A0009B4611B1B1FA81F202E0B0FA80F2203238
:1007B0009046FFF7B2FF04460F4640EA0A0041EABE
:1007C0000B0153465A46084313D0114653EA010021
:1007D00019D0C8F140025046FFF7AEFF05460E465D
:1007E000504659464246FFF798FF084305D001207E
:1007F00004E020463946BDE8F08D0020054346EA76
:10080000E0762C4337430A986305E40AA0EB08001E
:100810000022FD0A44EA47540A3002D5002001466E
:10082000E9E7010510196941DDE908450019694149
:10083000BDE8F04DA2E72DE9F04D00231A461B1A42
:100840008A4103DB00200146BDE8F08DC1F30A5266
:10085000C1F3130141F480154FF0000BD10702D111
:1008600000186D41521E0027044640F2FF11384621
:1008700001EB620A3E468046024600204FF480119A
:10088000FFF75AFFC2197141BB1846EB0100B4EBE8
:10089000030C75EB000C04D3E41A65EB0005174656
:1008A0000E46241908F101006D4180463428E3DD2D
:1008B000F91946EB0600091BA84103D24FF0FF329D
:1008C000134601E0002213461BEB070046EB0A51DA
:1008D000BDE8F04DFFF752BF30B5041E71F10004C2
:1008E00004DB4FF00044404264EB0101141E73F13D
:1008F000000405DB1C464FF00043524263EB040347
:100900008B4208BF824230BD1CB50948009009489F
:1009100001900546009C06E0E06840F0010394E881
:10092000070098471034AC42F6D3FFF759FC00009B
:10093000E89C0108089D010870B58C1810F8015B4F
:1009400015F0070301D110F8013B2A1106D110F868
:10095000012B03E010F8016B01F8016B5B1EF9D16C
:100960002B0705D40023521E0DD401F8013BFAE7F2
:1009700010F8013BCB1A921C03E013F8015B01F85D
:10098000015B521EF9D5A142D8D3002070BD0000F2
:100990000146806AC36DC26D13F0500F08D0D206B5
:1009A00048BF00F05FBC406D426B0846104700BF77
:1009B00042F40071C16501680B68CA681B0703D463
:1009C000910707D500F034BC12F4406FFAD1C96822
:1009D0008904F7D4C16D21F48071C165C16DC9046A
:1009E00048BF00F025BCC16D41F00101C16500F0B8
:1009F0001FBC0000806AC16D41F04001C165016EFD
:100A000041F00401016600F02DBC0000806A00F096
:100A100011BC000070B582B004460020019021682E
:100A20008A68D20711D14FF6C076C7F6FF7688687C
:100A300006F17F0210420BD0E06D40F01000E0653F
:100A4000206E40F001002066012002B070BD00BFA2
:100A500088684FF4C162304040F00100886040F285
:100A60000010C5F20000814208BF4FF40272B1F1DC
:100A7000A04F08BF4FF402721058000222D401F0B8
:100A80002BF921680A68D20718D1054603E000BF98
:100A90000868C00712D18868C00704D18868304050
:100AA00040F00100886001F017F9401B216803281D
:100AB000EED30868C007EBD1BEE700BF002002B04C
:100AC00070BD00BF40F2E820C2F20000006842F6AC
:100AD00063518009C0F23E51A0FB0101880900EB7F
:100AE00040000C2101EB8000019001980028C6D045
:100AF00001980138019001980028C0D00198013870
:100B0000019001980028BAD001980138019001980D
:100B10000028B4D001980138019001980028E7D14D
:100B2000ADE7000010B584B0282000F0E1FF4BF2E3
:100B3000BC004FF0FF34C2F200000DF10F02702133
:100B40000123009401F006FC9DF80F0000070CD46F
:100B500040F6BE0002904BF2BC00C2F2000002AAB6
:100B600070210323009401F0CBFC04B010BD000001
:100B7000F0B585B0044643F2AC304BF2BC060490AD
:100B80000020C2F200060D46ADF80C0002904FF0B6
:100B9000FF3704AA304670210323009701F0B0FC10
:100BA0004B2000F0A5FF02AA3046702106230097D3
:100BB00001F0D0FB9DF90800002832D49DF80A10FE
:100BC0009DF80B209DF80900090141EA12119DF8DA
:100BD0000C3041EA003000EE100A9FED131AB8EE17
:100BE000400A9FED122A02F00F0019029DF80D2015
:100BF00020EE010A41EA004020EE020A104485ED91
:100C0000000A00EE100A9FED0A1AB8EE400A20EE24
:100C1000010A9FED081A20EE020A30EE010A84ED67
:100C2000000A05B0F0BD00BF0000C84200008035DA
:100C300000004843000048C2FEE700000020704763
:100C40000020704710B54AF6B804C2F2000449F219
:100C5000CC11C2F200012046002209F07DFA48F6CC
:100C6000CC11C2F20001204609F06CFA002010BD40
:100C700010B54AF6B804C2F200040146204609F055
:100C800061FA204609F088F9002010BD0020704765
:100C90004AF6B802C2F20002D2F8BC22D2F81432EC
:100CA000002B1CBF0120704710B54AF6B804C2F2F1
:100CB00000040A460146204609F04EFA2046BDE8E7
:100CC000104009F0C1BA00004AF6A060C2F200006C
:100CD00000F0B8BD4AF60070C2F2000000F0B2BDEC
:100CE0004AF66070C2F2000000F0ACBD4AF68050D7
:100CF000C2F2000000F0A6BD4AF6E050C2F20000C9
:100D000000F0A0BD4AF62050C2F2000000F09ABDEB
:100D10004AF6C040C2F2000000F094BD4AF64060BE
:100D2000C2F2000000F08EBD4AF66040C2F2000040
:100D300000F088BD70470000EFF3108072B600BF6E
:100D4000FEE7000090F85820012A04BF02207047F7
:100D500070B582B0002201920092026840F2080E43
:100D6000C5F2000EB2F1A04F0EF1F80508D040F226
:100D70000043C5F200039A4234D10EF59F6300E0B0
:100D80002B469B68946823435B072BD44FF4E063A6
:100D9000D1F800C0AA4208BF4FF44073B2F1A04F8F
:100DA00008BF4FF440735EF80340BCF1000F24F419
:100DB000604425D04D6890F8386042F4807245EA6E
:100DC00046352C4340F20015C5F20005AA424EF804
:100DD000034027D1DEF80020DEF800412243D2078D
:100DE00048D129E0C16D41F02001C16501210022F7
:100DF00080F8582002B0BDE870400846704700BF38
:100E000042F4807140F20012C5F2000291424EF8A5
:100E100003401BD1DEF80010DEF800211143C907A2
:100E200028D11DE0DEF80044DEF80055DEF800268B
:100E30002C432243D2071DD15EF8032040F61F74D5
:100E40008968A243114341EA0C010EE0DEF8002458
:100E5000DEF80065DEF8001632431143C90709D1F8
:100E60005EF8031040F61F7291434EF80310002104
:100E7000BDE700BF0021BAE7F0B581B000220092C3
:100E800090F85820012A03D10221084601B0F0BD94
:100E90000123076880F85830BB685B0734D4D1E978
:100EA00000351F26C5F3012407EB8404226B05F0EF
:100EB0001F05AE40C3F38463B243AB401A432263C1
:100EC000BA68BB6802F0040203F00803D21840F0CD
:100ED000BC800A6807F114030426C2F34064D1F809
:100EE00008E006EAD25C53F82440C2F30455072216
:100EF000AA40BEF1004F24EA02040BD143F80C4093
:100F00001A6842F000430DE0C16D41F02001C16557
:100F1000012167E10EFA05F2224343F80C201A681A
:100F200022F000437B61D1E90435FC68042B5FD1DA
:100F30003A6E3A6E0B68C2F3846293FAA3F6C3F377
:100F4000846C6FF3DF43B6FA86F5002B2C464FF620
:100F5000FF7E08BF6446A242C0F2070E0CD13A6E73
:100F600022F000423A660A6802EA0E03C2F3846C79
:100F700092FAA2F2B2FA82F57A6E7A6E002BC2F37E
:100F800084622C4608BF6446A2420CD17A6E22F0DD
:100F900000427A660A6802EA0E03C2F3846C92FA8F
:100FA000A2F2B2FA82F5BA6EBA6E002BC2F3846274
:100FB0002C4608BF6446A2420CD1BA6E22F0004211
:100FC000BA660A6802EA0E03C2F3846C92FAA2F2CD
:100FD000B2FA82F5FA6EFA6E002BC2F3846208BF91
:100FE0006546AA4231D1FA6E22F00042FA662CE040
:100FF000062202EA940205FA02FC0E6807F1600577
:1010000055F823404FF20002C0F2FF3206F0F846D6
:10101000224046EA0C06324342F0004245F82320C3
:101020000A698B6955F8226026F08076334345F8CB
:1010300022300A690B7F55F82260012B26F00076DA
:1010400008BF06F1007645F82260BA680D68D2073D
:1010500050D1CA68D7F8B0602B466FF3DF4326EA59
:10106000030C4FF6FF7602F01804C0F20706E640C4
:1010700000242E40C4F27F0446EA0C06A242C7F8C0
:10108000B06037D193B195FAA5F2B2FA82F201328B
:1010900002F01E03092B02F01F0310D801229A4010
:1010A00003EB430342EA035315E000BF012202EBC6
:1010B000956202F01E030A2B02F01F03EED30122F9
:1010C00000269A4003EB4303CFF6206606EB03535A
:1010D0001A4342F00073C3F3406607EB86068A6842
:1010E0007569C3F3045307249C40A5439A402A43DF
:1010F00072610D680021C8F208010D4271D040F202
:10110000001CC5F2000C4FF4C161674508BF4FF4E5
:101110000271B7F1A04F08BF4FF4027151F80C40B3
:101120000022CCF22132954204F0E07E04D010225D
:10113000C9F2C002954241D1220252D440F200626B
:10114000C5F20002974202D0B7F1A04F49D15CF836
:10115000012022F0E07242EA0E0242F400024CF852
:10116000012040F2E821C2F20001096842F6635210
:101170008909C0F23E52A1FB0212910901EB410123
:101180000C2202EB81010091009951B300990139C1
:101190000091009929B3009901390091009901B398
:1011A0000099013900910099D9B100990139009154
:1011B000009900294FF00001E8D113E00022CCF2A1
:1011C0005272954214D10022B2EB1E6F10D15CF81E
:1011D000012022F0E07242EA0E0242F080724CF8E6
:1011E00001200021002280F85820084601B0F0BDFF
:1011F0000021CCF684318D424FF0000108BF14F479
:101200008002EFD1B7F1A04F06D06745EAD067451D
:1012100002D00CF5C06101E00CF500718A6822F083
:10122000E07242EA0E0242F480028A60D9E70000CE
:101230007047000010B540F24844C2F20004207824
:10124000002818BF10BD44F2A05040F2A051C2F2D5
:101250000000C2F200014FF48042FFF70AF80120BB
:10126000207010BD7047000070B582B000210028CA
:10127000019153D0C16D39B9044600F021F92046DF
:101280000021216684F858100268916889004FF6A1
:10129000C071C5F6FF7102D593680B4093609368E7
:1012A000DB002ED4936801F18051194041F0805148
:1012B000916040F2E821C2F20001096842F66353EE
:1012C0008909C0F23E53A1FB03139909022303EBE2
:1012D000410101910199A1B101990139019101994E
:1012E00079B1019901390191019951B101990139FE
:1012F0000191019929B101990139019101990029BF
:10130000EAD19168C9000DD4C16D012641F01001E8
:10131000C165016E41F00101016604E0012630461D
:1013200002B070BD00269368C46D03F0040304F09E
:1013300010041B19C36D77D123F481730233C36585
:101340009368DB072AD140F2001442F48073C5F29F
:10135000000440F2080CA342C5F2000C40F0A28049
:10136000DCF80040DCF800312343DB0716D10CF138
:10137000F8034FF4E064D0F804E09A4208BF4FF459
:101380004074B2F1A04F08BF4FF440745CF80430D1
:1013900023F47C1343EA0E034CF80430437FC46B00
:1013A000D0E9021544EA43332B4390F82450194303
:1013B000012D41EA054306D1816A0025CFF6FE756D
:1013C00005EB41410B43C46A24B1016B04F4787509
:1013D00029430B43D16844F20705CFF6F075294045
:1013E0001943D1601169436B21F0406119431161C8
:1013F0009168090743D490F83810037F490041EA07
:101400008331D36844F20205AB431943D1600369C9
:1014100014698BB144F480311161D2F8C01043F6E5
:10142000FF75A9430B4310E043F010020126C2658B
:10143000304602B070BD00BF24F480311161D2F893
:10144000C01043F6FF7321EA0303C2F8C03090F8DE
:101450004010136901290FD140F2FD7123EA010CFC
:10146000D0E91135D0E9134143EA0C032B43234360
:10147000194341F0010301E023F0010313614169C5
:10148000136B012923F00F0302D1016A01390B43C9
:101490001363C26D012161F30102C265304602B0DF
:1014A00070BD00BFDCF800E4DCF80035DCF8004675
:1014B00043EA0E032343DB073FF459AF6EE7000016
:1014C000F0B59BB0044600201A90CDE91800CDE994
:1014D000160001A85421FEF7E5FE206840F2004105
:1014E000C5F2000188426BD0B0F1A04F40F0998066
:1014F0004FF4004001904FF08050129001A802F08C
:1015000099FC002818BFFFF717FC41F24C00C4F209
:101510000200016816AD41F4005101600168032723
:1015200001F40051009100990168002641F0040186
:101530000160016801F0040100910099016841F027
:10154000010101600068294600F001000090009848
:101550000C20169040F20040C4F6000000F58060B8
:101560001797189600F0D8FA4FF090402946CDE929
:101570001677189600F0D0FA4AF6604540F2084017
:10158000C2F20005C4F2020005214FF4007385E8A1
:10159000430005F1140080224FF400674FF0200C47
:1015A00080E888102846C5E903622E6200F0A0F9A1
:1015B000002818BFFFF7C0FB6565AC621BB0F0BD2B
:1015C0004FF4803001904FF08040139001A802F05A
:1015D00031FC002818BFFFF7AFFB41F24C00C4F20A
:1015E0000200016841F480410160016801F480411A
:1015F00000910099016841F002010160006816A99C
:1016000000F00200009000984FF400501690032064
:1016100017900020189040F20040C4F6000000F03F
:101620007BFA1BB0F0BD00002DE9F04140F200163E
:101630000368C5F200064FF4C167B34208BF4FF418
:101640000277B3F1A04F08BF4FF40277BF599D68EE
:101650006D0703D490F85850012D03D10220BDE846
:10166000F08100BF06F5A06407F01F070125A34223
:1016700080F8585018BF002F0CD10D4690460446F4
:10168000FFF7C8F980B1002084F858000120BDE8B8
:10169000F08100BF052FF0D0092FEED0002180F897
:1016A00058100120BDE8F0812168E06D40F601731B
:1016B0009843224600F58070B142E06508D040F2C0
:1016C0000050C5F20000814208D106F5407001E0EB
:1016D0004FF0A040884218BF002F03D1D06D20F4F6
:1016E0008010D065D06D40F69117C0044FF0000017
:1016F00044BF106E20F006001066506D40F60D26B7
:10170000C0F60007C0F6000640F6F5140023C0F648
:101710000004C0E90B761C2744630F6082F8583040
:101720004B68144643F010034B60CB682A4643F0E5
:101730000103CB604031434600F066F921684FF663
:10174000C0738A68C7F6FF731A4004328A60BDE826
:10175000F0810000014690F82500022828D180B5CC
:101760000868D1E910CE8A6C036823F00E03036089
:10177000136823F480731360026822F00102026090
:101780000EF01F00012202FA00F0CCF80400D1E9AB
:1017900013205060486D30B1026822F480720260FC
:1017A000D1E9160242600020BDE8804003E000BF9E
:1017B0000420C8630120012281F82520002281F83D
:1017C0002420704790F82510022931D180B5016896
:1017D000D0E910CE826C0B6823F00E030B600B680F
:1017E00023F001030B60116821F4807111600EF089
:1017F0001F02012101FA02F2CCF80420D0E91332D1
:101800005A60426D32B1136823F480731360D0E9DB
:101810001623536080F82510826B002180F8241075
:101820000AB190470021BDE880400846704700BFDC
:101830000421C1630121002280F8251080F82420B2
:1018400008467047B0B5D0E910C30268DCF8001054
:1018500003F01F030424D2F800E09C400C4218BFA0
:101860001EF0040520D102249C400C4218BF1EF03B
:10187000020529D1D940090714D51EF0080108BF77
:10188000B0BD116821F00E011160012101FA03F2CF
:10189000CCF80420C16380F82510416B002280F849
:1018A000242069B9B0BD00BF1168890603D411684E
:1018B00021F004011160CCF80440016B0029F1D043
:1018C000BDE8B040084700BF1168890606D411681A
:1018D00021F00A011160012180F82510CCF80440A4
:1018E000C16A0022002980F82420E9D1DAE700004B
:1018F00000284FF0010100F085802DE9F04740F20B
:10190000000CC4F2020C03684FF6F8320CF5816E3D
:10191000CBF6FD72734538BF02F580624CF6CD44BC
:101920001A44CCF6CC44A2FB042903F0FC02A2F139
:101930000802A2FB04280CF580646FF00305D0E9CF
:1019400002A607693CBF0024C4F2020405EA990517
:10195000C0E91045022480F825401C6847F6F07263
:1019600024EA0202324346693A4387693243C66930
:101970003A43076A32433A4342EA0A021A600CF5D4
:101980000262734538BF0CF50062AB180CF50862B3
:10199000C264C8F3041201FA02F540F68401BAF5F4
:1019A000804FC4F202018364056505D100224260C4
:1019B0001A600D6018E000BF4268D4B2013A032AF1
:1019C0004FF000021C600D600ED8631E01EB830710
:1019D00047F87C2F03F01F0201239340C1F8C03069
:1019E000BC313A4602E000BF00210023C0E91521C6
:1019F00000210122C365C16380F8252080F82410EE
:101A0000BDE8F0470846704790F824C0BCF1010FCC
:101A100047D04FF0010C80F824C090F825C0BCF1ED
:101A2000010F3BD12DE9F0414FF0020C80F825C0A9
:101A30004FF0000CC0F83CC0D0F800C000F14C0ED4
:101A40009EE83040DCF80060BEF1000F26F0010691
:101A5000CCF8006065601CBFD0E916456560D0E930
:101A60001056012706F01F06846807FA06F6D0F81C
:101A700030806E60CCF804300B46102C04BF134647
:101A80000A46CCF80830CCF80C20DCF80010B8F18D
:101A9000000F09D041F00E010EE000BF002180F8D8
:101AA00024100220704700BF21F00401CCF8001080
:101AB000DCF8001041F00A01CCF80010806C0168DD
:101AC000C90303D5016841F480710160BEF1000FC4
:101AD00005D0DEF8000040F48070CEF80000DCF89D
:101AE000000040F00100CCF800000020BDE8F081CB
:101AF000B0B5044600F0F0F8054640F23000C2F2FE
:101B000000004068611C18BF044400BF00F0E4F806
:101B1000401BA042FAD3B0BD2DE9F04F83B00E6850
:101B2000002E00F0CF8000F1200241F2004C009224
:101B300000F13847C4F6000C06224FEAB72560458D
:101B400008BF0522052D38BF4FEAB7220025002720
:101B50004FF0000801920AE00E6808F1010836FA19
:101B600008F207F1020705F1040500F0AB8001223D
:101B700002FA08FE16EA0E09EED0D1F804C00322DC
:101B80000CF0030BABF1010602FA07F4012E6FEA29
:101B9000040A11D88468CE6804EA0A04BE403443BB
:101BA0008460446824EA0E06CCF3001404FA08F4B6
:101BB0002643466006E000BFBBF1030F02D14FF0A1
:101BC000030B21E0C6688C6806EA0A06BC4026437F
:101BD000BBF1020FC66017D16FF00302009B02EA4F
:101BE000580605F01C020F2453F806C004FA02FE42
:101BF0000C692CEA0E0C04FA02F242EA0C029A5129
:101C0000D1F804C00CF0030B02680BFA07F302EAE8
:101C10000A021A431CF4403F02609DD041F2600367
:101C2000C4F202031A6840F2004E42F001021A6048
:101C30001A68C4F2010E02F001020292029A28F020
:101C400003024FF6084C7244CFF6FF7C52F80C307A
:101C500005F00C060F24B440A343019C04FA06F6D9
:101C6000334342F80C30DEF808204B6842EA09069C
:101C700040F20C4CDC0258BF22EA0906CEF808609C
:101C8000C4F2010CDCF800209C0242EA090658BFAD
:101C900022EA0906CCF80060DEF804209C0342EA40
:101CA000090658BF22EA0906CEF80460DEF80020D3
:101CB000DB0342EA090658BF22EA0906CEF80060B3
:101CC0004AE700BF03B0BDE8F08F00001823002AE8
:101CD00008BF2823C15070474BF2F860C2F20000E1
:101CE0000068704790F8DC20012A4FF0020221D0F2
:101CF000012380F8DC3080F8DD2002684B1CD2F82C
:101D0000CCC309D04CF00203C2F8CC33D2F8CC33A8
:101D100023F00C03194301E02CF00201C2F8CC13AC
:101D2000D2F8CC1341F00101C2F8CC1301210022FA
:101D300080F8DD1010467047002804BF012070476E
:101D400010B582B00446022084F8DD00207AC00776
:101D50004FF00000C4E93800C4E93A00C4E93C008F
:101D6000C4F8F8001FD0206846F60001C4F2010153
:101D700088420CD141F26001C4F202010A6842F0CB
:101D800080620A60096801F080610191019901682F
:101D9000D4E9042321F4704102F44042114403F4D5
:101DA000405211440160204600F03EF8207A80073E
:101DB00006D52068E1680268090A61F30922026019
:101DC000012084F8DD00002084F8DC00C4F8D8008D
:101DD000C4E90600C4E90800A062C4E90C00C4E933
:101DE0000E00C4E91000C4E91300C4E91500C4E9F9
:101DF0001700C4E91A00C4E91C00C4E91E00C4E9C4
:101E00002100C4E92300C4E92500C4E92800C4E98D
:101E10002A00C4E92C00C4E92F00C4E93100C4E958
:101E2000330002B010BD0000006846F60001C4F2A5
:101E30000101884218BF704781B041F26000C4F2CE
:101E40000200016841F080610160006800F080607C
:101E50000090009801B0704780B586B0006846F6E3
:101E60000002C4F2010200219042CDE90411CDE943
:101E70000211019102D006B080BD00BF41F24C00BA
:101E8000C4F20200026842F002020260006800F040
:101E90000200009000984FF4805001900220CDE99C
:101EA0000201032004900D20059040F20040C4F68A
:101EB000000001A9FFF730FE06B080BD70B50D46E9
:101EC0000446FFF709FF2168D1F88823D20314D410
:101ED00055B30646681C1CD1D1F88803C0030CD446
:101EE000D1F88803C0035CBFD1F888035FEAC03033
:101EF00003D4D1F88803C003EED5012084F8DD00B7
:101F0000002084F8DC0070BD2068D0F88803C0038E
:101F1000F3D4FFF7E1FE801BA842F5D9072084F82F
:101F2000DD00032070BD00BFFFF7D6FE072084F858
:101F3000DD00032070BD0000F0B589B090F8DD60D1
:101F4000022E03D10224204609B0F0BD90F8DC60D7
:101F50000224012EF7D001267F2A80F8DC6080F869
:101F6000DD4000F32F80561E3F2E00F23C80DFE85C
:101F700006F021433A213A3A3A433A3A3A3A3A3A5F
:101F80003A213A3A3A3A3A3A3A3A3A3A3A3A3A3ACA
:101F90003A433A3A3A3A3A3A3A3A3A3A3A3A3A3A98
:101FA0003A3A3A3A3A3A3A3A3A3A3A3A3A3A3A3A91
:101FB0003A2100BF06681D6806EBC116C6F89C50A2
:101FC000082620E0B2F5007F08DB15D0B2F5006FDF
:101FD00012D0B2F5806FEDD005E000BF802A0BD0A3
:101FE000B2F5807FE6D000260725029680F8DD5006
:101FF00080F8DC6008E000BF06681D6806EBC116CB
:10200000C6F8A4501026029690F8DD600124072E31
:102010003FF499AFD3E90136002703F0020301939F
:1020200006F0080305930423039301AB0497CDE95D
:102030000677089705460E4604F01CFE286800EB5C
:10204000C610D0F8801041F00061C0F8801085F80B
:10205000DD40002485F8DC70204609B0F0BD0000AA
:1020600090F8DC30012B4FF0020319D080F8DD30FE
:10207000D0F800C0DCF894331A43CCF894234DF226
:102080008842C0F6000252F82110DCF8002000233C
:102090001143CCF80010012180F8DD1080F8DC300D
:1020A0001846704790F8DD20022A03D1022210461C
:1020B000704700BF90F8DC20012A4FF0020201D1E6
:1020C0001046704780F8DD200268D2F88433194347
:1020D000C2F884130121002280F8DD1080F8DC2092
:1020E0001046704790F8DD30022B4FF0020331D0DC
:1020F00010B580F8DD300368062911D11968D2E9DE
:1021000000CED2E9024221F01F0124F0180421433D
:1021100011431960C3F814C0C3F818E014E000BFFD
:1021200003EBC111D1F88030D2E900ECD2E90242D0
:1021300023F01F0324F0180423431A43C1F880201E
:10214000C1F894E0C1F898C00121002380F8DD10A7
:10215000BDE810401846704790F8DD30022B04BFF0
:102160000220704790F8DC30012B4FF002033ED084
:102170002DE9F04180F8DD30D0F800C04FF6EF7463
:102180000CEBC11E5EF8EC3FCFF6EC7492E86001F8
:1021900023400134D76804EA0514234326F440346D
:1021A000234327F4003495692343012D43EA0803B0
:1021B00009D1D2E9042423F0060322F002021A43D3
:1021C000224342F001030629CEF8003007D809A2C5
:1021D00052F82110DCF884231143CCF88413012138
:1021E000002380F8DD1080F8DC30BDE8F0411846AF
:1021F000704700BF0200000004000000080000005B
:10220000100000002000000040000000010000005D
:1022100090F84120202A03D190F84020012A01D1D2
:1022200002207047242280F841200268136823F0BE
:1022300001031360136823F4805313601368194378
:102240001160116841F001011160202180F84110F6
:10225000002180F8401000207047000090F84120D5
:10226000202A03D190F84020012A01D10220704792
:10227000242280F841200268136823F001031360D0
:10228000136823F4706343EA01211160116841F07F
:1022900001011160202180F84110002180F84010D8
:1022A00000207047002804BF0120704710B590F847
:1022B000411031B9002180F84010044600F04CFC78
:1022C0002046242180F8411090E81210C3680A6863
:1022D000012B22F001020A6024F070620A618A6810
:1022E00022F400428A6003D14CF400428A6009E083
:1022F0004CF40442022B8A6004D14A6842F4006222
:1023000003E000BF4A6822F400624A604A6800F1B4
:10231000100C42F0007242F400424A60CA6822F493
:102320000042CA609CE81C101A4342EA0422CA60B8
:10233000026A42EA0C020A600A6842F001020A607C
:1023400000212022416480F84120016380F842107E
:10235000002010BD2DE9F04782B0044690F84100FE
:10236000202803D194F84000012803D1022002B0B4
:10237000BDE8F08701200D461746984684F84000D6
:10238000FFF7AAFC216806468A69120425D4222098
:1023900084F84100102084F84200002060646762E5
:1023A000A4F82A806063608D49F6000C40F20008B2
:1023B000CFF6004CB0F5807FC0F2FF1826D351F85D
:1023C000040F2B466FF39F2300EA0C0708F510500B
:1023D000FF2228E088690004D9D520461921324619
:1023E00004F0C4FC002871D1FFF776FC801B216843
:1023F0001A28EFD388690004ECD5606C40F0200007
:102400006064202084F84100012070E0628D28463D
:1024100051F8043F6FF39F20D7B240EA074703EA21
:102420000C0308F592303B43184308602285608D09
:102430000A9F002844D06FF39F254FF0FF090CF549
:10244000806A10E0618D2068218550F8042FC9B2A0
:1024500002EA0A0242EA01414FF0007229431143A5
:102460000160608D60B320463946324604F09EFD1F
:1024700060BB2068616A406A0870606A218D013023
:102480006062481E2085618D01396185618D00295A
:10249000E7D00004E5D12046802100223B4600968B
:1024A00004F012FD90B9608DB0F5807FCAD320682A
:1024B000A4F8289050F8041F424601EA0A01CDE72B
:1024C00020463946324604F0DDFD18B1012002B045
:1024D000BDE8F08720682021C16142684EF6000304
:1024E000CFF600631A404260002084F841100021BA
:1024F00084F8421084F8401002B0BDE8F087000074
:102500002DE9F04782B0044690F84100202803D11D
:1025100094F84000012803D1022002B0BDE8F08702
:1025200001200D469846174684F84000FFF7D4FB7B
:10253000216806468A6912041BD4212084F84100D0
:10254000102084F84200002060646762A4F82A80AA
:102550006063608D49F6000CB0F5807FCFF6004CCB
:1025600022D3FF2222854FF0807324E08869000483
:10257000E3D520461921324604F0F8FB002840F04C
:102580008580FFF7A9FB801B21681A28EED3886994
:102590000004EBD5606C40F020006064202084F8DB
:1025A0004100012083E000BF628D002A228500F0F7
:1025B00087804FF0007317F8010B88626762608DA7
:1025C00001386085501E208528466FF39F20D2B2C7
:1025D00040EA02404A68184302EA0C02104340F401
:1025E00000504860608D0A9F002849D040F2000AE0
:1025F0006FF39F254FF0FF080CF58069C0F2FF1ABA
:1026000011E000BF618D2068218550F8042FC9B208
:1026100002EA090242EA01414FF0007229431143E4
:102620000160608D60B320463946324604F068FD93
:1026300060BB606A216810F8012B8A626062608D5D
:1026400001386085208D01382085618D0029E8D012
:102650000004E6D12046802100223B46009604F08B
:1026600033FC98B9608DB0F5807FCBD32068A4F897
:10267000288050F8041F524601EA0901CEE700BF46
:1026800020463946324604F0FDFC18B1012002B064
:10269000BDE8F08720682021C16142684EF6000342
:1026A000CFF600631A404260002084F841100021F8
:1026B00084F8421084F8401002B0BDE8F08700BFF3
:1026C000486808222B4600EA0C0062F39F23184357
:1026D00040F0007085E700002DE9F04F83B004461C
:1026E00090F84100202807D10C9F4FB10D9E3EB1BC
:1026F00094F8400001280BD1022003B0BDE8F08F10
:102700004FF400706064012003B0BDE8F08F00BF9B
:1027100001209A469346884684F84000FFF7DCFA89
:10272000216805468A6912044BD4222084F84100AE
:1027300040204FF0000984F84200C4F844906762DA
:102740006685C4F8349049F600034A68CFF6004322
:102750006FF39F285FFA8AF048EA00401A40DDF8DC
:1027600038C0104400F50050CDF80880486020467D
:1027700061462A461E46674604F0C2FCC0B920687E
:10278000BAF1010F09D04FEA1B2181622046394678
:102790002A4604F0B5FC58B920685FFA8BF18162D3
:1027A0002046402100223B46009504F08DFB48B3B3
:1027B00084F84090012003B0BDE8F08F88690004E0
:1027C000B3D5204619212A4604F0D0FA00289AD120
:1027D000FFF782FA401B21681A28EFD388690004AA
:1027E000ECD5606C40F020006064202084F841004B
:1027F000002084F8420084F84000012003B0BDE8C6
:10280000F08F00BF608D40F20009B0F5807FC0F20C
:10281000FF1909D3206809F5105350F8041F4FF031
:10282000FF0C01EA06020BE0B4F82AC020685FFA48
:102830008CF350F8042F324042EA034209F59233F8
:1028400002991A430A434FF0FF0B06F580680260B5
:10285000A4F828C012E000BF618D2068218550F8DF
:10286000042FC9B202EA080242EA01414FF00072A5
:10287000029B114319430160608D98B320460421E7
:1028800000223B46009504F01FFB00287FF43BAF7D
:102890002068616A406A0870606A218D0130606258
:1028A000481E2085618D01396185618D0029E3D045
:1028B0000004E1D12046802100223B46009504F02F
:1028C00003FB00287FF41FAF608DB0F5807FC3D37A
:1028D0002068A4F828B050F8041F4A4601EA08010D
:1028E000C6E700BF204639462A4604F0CBFB002845
:1028F0007FF409AF20682021C16142684EF60003D1
:10290000CFF600631A404260002084F8411084F83A
:10291000420084F8400003B0BDE8F08F2DE9F04F8D
:1029200081B0044690F84100202807D10A9F4FB19A
:102930000B9E3EB194F8400001280BD1022001B05B
:10294000BDE8F08F4FF400706064012001B0BDE875
:10295000F08F00BF01209A4691468B4684F84000D4
:10296000FFF7BAF9216805468A6912044DD421207F
:102970000C9A84F8410040204FF0000849F60043CB
:1029800084F84200C4F8448067626685C4F83480E5
:10299000CFF600436FF39F2B5FFA8AF017464A6821
:1029A0005E464BEA00409B46A3F580631A40104404
:1029B00040F0807040F400504860204639462A4676
:1029C00004F09EFBC0B92068BAF1010F09D04FEAAC
:1029D00019218162204639462A4604F091FB58B9F4
:1029E00020685FFA89F181622046802100223B46FF
:1029F000009504F069FA48B384F84080012001B0E2
:102A0000BDE8F08F88690004B1D5204619212A4617
:102A100004F0ACF9002898D1FFF75EF9401B21685B
:102A20001A28EFD388690004ECD5606C40F02000D0
:102A30006064202084F84100002084F8420084F87B
:102A40004000012001B0BDE8F08F00BF608D40F272
:102A50000009B0F5807FC0F2FF1909D320684FF05C
:102A6000FF0C50F8041F4B4601EA0B020DE000BFBB
:102A7000B4F82AC020685FFA8CF350F8042F02EAF9
:102A80000B0242EA03424FF000731A4332434FF005
:102A9000FF0831460260A4F828C011E0618D20686B
:102AA000218550F8042FC9B202EA0B0242EA014123
:102AB0004FF000721143314333460160608D78B3AB
:102AC000204639462A4604F01BFB00287FF43DAF20
:102AD000606A216810F8012B8A626062608D01389B
:102AE0006085208D01382085618D0029E6D00004A5
:102AF000E4D12046802100223B46009504F0E4F911
:102B000000287FF422AF608DB0F5807FC6D32068A7
:102B1000A4F8288050F8041F4A4601EA0B01C9E7CF
:102B2000204639462A4604F0ADFA00287FF40DAF5E
:102B300020682021C16142684EF60003CFF6006391
:102B40001A404260002084F8411084F8420084F862
:102B5000400001B0BDE8F08F2DE9F0439BB0044682
:102B600000201A90CDE91800CDE9160001A8043024
:102B70005021FDF797FB206847F60001C4F20001E1
:102B8000884203D01BB0BDE8F08300BF4FF48078CB
:102B900001A8CDF8048001F04DF9002818BFFEF718
:102BA000CBF841F24C06C4F20206306816AD40F094
:102BB0000400306030684FF0120900F0040000900B
:102BC00000983068002740F00100306030682946E6
:102BD00000F00100009000984FF40070169008205B
:102BE0001A9040F60000C4F60000CDF85C90CDE9E4
:102BF0001877FEF791FF02201A904FF09040294677
:102C0000CDE91689CDE91877FEF786FF41F2580025
:102C1000C4F2020001684AF6205541F0804101608B
:102C20000068C2F2000500F0804000900098A6F510
:102C30007E60152110224FF0800885E88701284624
:102C4000C5E90577C5E90777FEF752FE002818BFEA
:102C5000FEF772F8A563AC624AF6C045A6F6CC70E2
:102C6000C2F20005142185E883002846C5E90378EF
:102C7000C5E90577C5E90777FEF73AFE002818BFD2
:102C8000FEF75AF8E563AC621BB0BDE8F0830000C4
:102C900040F230004BF2F861C2F20000C2F20001D3
:102CA00040680A68104408607047000080B503203F
:102CB00000F08CF80F2000F009F800281CBF01205C
:102CC00080BD00F02BF8002080BD0000B0B540F2C0
:102CD0003005C2F200056968F1B1044640F2E8200F
:102CE000C2F200004FF47A720068B2FBF1F1B0FB5F
:102CF000F1F002F0C1F801460F2C4FF001000AD8A4
:102D0000002918BFB0BD4FF0FF302146002200F06F
:102D100031F800202C60B0BD0120B0BD82B041F27E
:102D20005800C4F20200816841F0010181608168AD
:102D300001F0010101910199016841F080510160A8
:102D4000006800F080500090009802B001F068B870
:102D5000002848BF704700F01F01012202FA01F16C
:102D60001C2202EAD0004EF20012CEF20002815084
:102D70007047000010B54EF60C5CCEF2000CDCF88B
:102D80000030C3F3022E8EF00704042C28BF042465
:102D9000BEF103034FF0FF3E0EFA04F438BF0023E8
:102DA000A14399400EFA03F39A43114300F00F0236
:102DB00000F160430901043A03F5644362440028CA
:102DC00048BF02F10C03197010BD00004EF60C5103
:102DD000CEF200010A684FF6FF031A4060F30A22A0
:102DE00042F0806040F0FD70086070470122016889
:102DF000C0F8D022002280F8C822B1F8540040F078
:102E00000100A1F85400B1F8540040F00202002083
:102E1000A1F854207047000010B50129044613D0D2
:102E200011BB607A48B105F0E9FC4EF61050CEF2C5
:102E30000000016821F006010160D4F8D802BDE865
:102E4000104007F061BC00BFD4F8D80207F0E4FCE2
:102E5000607A002808BF10BD4EF61050CEF2000078
:102E6000016841F00601016010BD000080B501F06D
:102E7000070C0CEB8C0C00EBCC0C0CF1100C01EBE8
:102E8000810E090600EBCE0058BF00F5A87C5AB1B0
:102E9000ACF808301B0C01210A202CF8003000206F
:102EA0008CF80C1080BD00BF002106202CF80030EB
:102EB00000208CF80C1080BD01EB8102D0F8D832D4
:102EC00000EBC200426A184607F0DEBA01EB81024D
:102ED000D0F8D83200EBC200D0F86421184607F0D1
:102EE00027BB000010B501F0070E0A464FFA81FC1F
:102EF0000EEB8E0100EBC10303F5A871BCF1000FCE
:102F000048BF03F1100190F89032D209012B4A70AA
:102F100081F800E004BF022010BD0268012380F8A0
:102F200090320446104608F0E9F8002084F8900238
:102F300010BD0000027901F00F03934284BF01200D
:102F4000704710B501F0070303EB830200EBC202E8
:102F50004FFA81FC8E4602F5A871BCF1000F48BF04
:102F600002F110014FEADE124A7090F890224FF001
:102F7000000C012A81F802C00B7004BF022010BDB2
:102F80000268012380F890320446104608F04AF99E
:102F9000002084F8900210BD01F0070101EB8101CF
:102FA00000EBC100D0F86C0170470000B0B501F033
:102FB00007048C464FFA81FE04EB840100EBC10547
:102FC00005F5A871BEF1000F48BF05F110014FEAE9
:102FD000DC156FF3DF224D700C700A61022BCB7091
:102FE00004BF00220A7190F89022012A04BF022037
:102FF000B0BD0268012380F890320446104607F005
:10300000EBFE002084F89002B0BD000010B501F086
:10301000070C0CEB8C0100EBC10E00680EF5A871DB
:103020000024CEF86421CEF86831CEF86C418EF8D9
:1030300051418EF850C108F04BF9002010BD00003E
:10304000027901F0070C94454FF001022AD810B51F
:1030500001EB810300EBC3034FFA81FE03F5A87374
:103060000CEB8C04C90900EBC404BEF1000F48BF8F
:1030700004F11003597090F890129A70012983F8A6
:1030800000C001D102220BE00168012280F89022E9
:1030900004460846194608F001F9002284F89022F7
:1030A000BDE810401046704780B501F0070C0CEBEE
:1030B0008C0100EBC10101F810CF00684FF0010C4A
:1030C00001F1140781F824C04FF0000E87E80C408E
:1030D0000B6281F801C008F0FBF8002080BD000001
:1030E0002DE9F04F83B00446006808F041FC01046C
:1030F00022D4410500F1AA83410400F1B98381047F
:1031000000F1CE83C10400F1D583010500F1F883FD
:10311000010600F10F84810500F11C84C00540F117
:10312000A3832068B0F8441021F48071A0F8441003
:1031300003B0BDE8F08F00BF2068B0F94410B1F1D2
:10314000FF3F00F3918304F5A871019104F1100190
:1031500048F2C005029104F5267140F60F780091FF
:1031600023E000BFB0F8501094F85021014401EB67
:10317000C201B1F80634B4F8562100996FF39F23C9
:10318000C4F86C3108F0F8FB2068018801EA0801F6
:1031900080310180204600F089FD00BF2068B0F931
:1031A0004410B1F1FF3F00F35F83B0F8442012F008
:1031B0000F090DD030F929104FEA490BB1F1FF3F4B
:1031C0001FFA81FA2EDD5FEA0A60E7D530E100BF21
:1031D0000188D2065ED401EA080101F500410180B0
:1031E000B0F85010227C084400EBC200B0F8020492
:1031F000616A6FF39F20E06208446062204600210C
:10320000FFF75AFE207B0028C8D0A06A0028C5D14D
:10321000207B216840F08000C0B2A1F84C00002063
:103220002073BBE730F81B1001EA0801803120F859
:103230001B10019A09EB890102EBC106317B0029C1
:103240006CD0F178022979D1B0F850303178B26978
:1032500003445FEA4A4703EBC10300F18780B3F8F8
:10326000067400236FF39F27D21B38BF1A46B26142
:1032700040F292805FEA4A6200F19C8030F821209F
:1032800002EA08022A4320F82120002F40F0938010
:10329000B0E000BF0A053FF565AF09B2B1F1FF3FED
:1032A0003FF77CAF018801EA080180310180B0F866
:1032B000501094F85021014401EBC201B1F80634DA
:1032C0006FF39F23C4F86C3193B1D4F8641179B1D2
:1032D000B4F8562108F050FBD4F86401D4F86C110E
:1032E0000844C4F8640120460021FFF7EFFD206880
:1032F00001880A053FF552AF01F44051B1F5405F36
:103300003FF44CAF018843F60F7211404CF280023B
:10331000A2F580525140018040E700BFB0F8501044
:103320003278014401EBC201B1F806746FF39F27B4
:10333000002F5FD07169F28857E000BF317830F814
:10334000212002EA08022A4320F8212030F8212017
:10335000B0F8503000EBC1015204194416D4B1F852
:1033600006746FF39F2737BB44E000BFB3F80274C5
:1033700000236FF39F27D21B38BF1A46B2611DD9B5
:103380005FEA4A6227D477BB34E000BFB1F8027429
:103390006FF39F273FBB2DE030F8212043F60F73DA
:1033A0001A4005F5FE535A4020F821205FEA4A6290
:1033B0007FF564AFF7B17169728916E030F82120AA
:1033C00043F60F731A4005F5FE535A4020F82120AA
:1033D0005FEA4A62D7D530F8212002EA08022A4380
:1033E00020F8212037B1716932893B4608F0C4FAD0
:1033F00001E000BF0027F169D6E9050239443844ED
:10340000F161706112B13069B84209D93178204652
:10341000FFF75CFD5FEA0A607FF5C0AE08E000BF21
:103420002068314607F054FF5FEA0A607FF5B6AEC8
:10343000206809EB890130F81B20029B03EBC106D1
:1034400002EA080101F5004120F81B10F378012B76
:1034500022D1317B00294FF00001B16100F02581BC
:103460005FEA4A617AD47178012900F00B81002962
:1034700040F01B81B0F850103278084400EBC200D5
:10348000B0F806146FF39F21A0F80614B0F80614E4
:1034900041F40041FDE000BF5FEACA511CD4B0F81E
:1034A00050203178024402EBC102B2F80224B36921
:1034B0006FF39F229B1A4FF0000738BF3B46B36162
:1034C00040F2F4807169F369114471619918F161F6
:1034D000314607F0FDFE61E6B0F850503178B26930
:1034E0005FEA4A6700EBC10E50D40EF2064C3CF87E
:1034F000055000276FF39F25521B38BF3A46B26133
:1035000074D95FEA4A4208D430F821204CF2800393
:1035100002EA08021A4320F8212096F82410012913
:1035200040F08581D6E90431D6E9077229442F4459
:103530009A427161F76180F00781002A00F04281B0
:103540000023336286F8243013467278012A40F053
:103550000181B0F850202CF8023052E17178012935
:1035600000F09A80002940F0A080B0F85010327826
:10357000084400EBC200B0F802146FF39F21A0F8DA
:103580000214B0F8021441F400418CE00EF2024C37
:103590003CF8055000276FF39F25521B38BF3A4671
:1035A000B26147D95FEA4A4208D530F821204CF28F
:1035B000800302EA08021A4320F8212096F824101A
:1035C000012940F03481D6E90431D6E9072729449E
:1035D0002A449F427161F26180F0D2800022002F64
:1035E00086F8242040F0CE802F46CCE07278012A65
:1035F00060D0002A48F2C00567D1B0F8502072446C
:10360000B2F802746FF39F27A2F80274B2F8027442
:1036100047F40047A2F80274B0F850203CF802705A
:103620006FF39F272CF802703CF8027047F40047B4
:1036300049E000BF7278012A5CD0002A48F2C00538
:1036400064D1B0F850203CF802506FF39F252CF85D
:1036500002503CF8025045F400452CF80250B0F8F6
:10366000502048F2C0057244B2F806746FF39F27E9
:10367000A2F80674B2F8067447F40047A2F806747C
:1036800044E000BFB0F850103278084400EBC200AC
:103690000021A0F8061408E0B0F850103278084471
:1036A00000EBC2000021A0F8021431782046FFF799
:1036B00003FC73E5B0F8502048F2C0057244A2F84C
:1036C0000274B0F850202CF80270022B09D130F8A7
:1036D000212040F63F731A40A5F120035A4020F8FC
:1036E00021202046FFF7E8FB5FEA4A403FF556AD50
:1036F0001FE000BFB0F8502000252CF80250B0F8B1
:1037000050207244A2F8065448F2C005022B09D199
:1037100030F8212040F63F731A40A5F120035A40AB
:1037200020F821202046FFF7C7FB5FEA4A407FF5DB
:1037300035AD206831784CF2800330F8212002EA60
:1037400008021A437FE000BFD21A32627278012A5F
:103750003FF4FFAE002A54D1B0F850703CF8072077
:103760006FF39F222CF80720A3B33E2B3AD803F027
:1037700001023CF8075002EB530245EA82223EE088
:10378000FA1A1F4632627278012A15D0002A4AD1ED
:10379000B0F850203CF802306FF39F232CF8023031
:1037A000E7B13E2F30D807F001033CF8025003EB9D
:1037B000570345EA832334E0B0F850202CF8027018
:1037C00031E000BF002286F824202B467278012ABF
:1037D000C0D1BEE63CF807200FE000BF3CF8023045
:1037E0001DE000BF5A09DD063CF807E04FF0FF3549
:1037F00008BF05EB53124EEA822242F400422CF835
:10380000072072899BB210E07B09FD063CF802E0BC
:103810004FF0FF3508BF05EB57134EEA832343F4FF
:1038200000432CF802303289BBB208F0FBF8206864
:10383000317840F63F7330F8212048F2C0051A4035
:10384000A5F110035A4020F82120A7E42068B0F821
:10385000441021F48061A0F84410204600F0E8F9FB
:1038600094F8900201280DD103B0BDE8F08F00BF9D
:103870002068B0F8441021F48041A0F8441003B04F
:10388000BDE8F08F0120002584F8900225732068A0
:10389000002108F0BFF884F8905203B0BDE8F08F23
:1038A0002068B0F8441021F40051A0F8441003B08F
:1038B000BDE8F08F2068B0F8401021F00401A0F8B6
:1038C0004010B0F8401021F00801A0F8401094F822
:1038D000C802012806D1002084F8C8022046002131
:1038E000FFF79AFA204600F0B5F92068B0F84410C6
:1038F00021F48051A0F8441003B0BDE8F08F00BF60
:103900002168B1F8400040F00800A1F84000B1F88B
:10391000440020F40060A1F84400B1F8400040F0F9
:1039200004022046A1F8402003B0BDE8F04F00F0AB
:10393000DBB900BF2068B0F8441021F08001A0F886
:10394000441094F8C81299B1204603B0BDE8F04F76
:1039500000F0CAB92168B1F8440020F40072204692
:10396000A1F8442003B0BDE8F04F00F087B900BFD4
:10397000B0F8401041F00401A0F84010B0F8401039
:1039800041F00801A0F84010012184F8C812B0F8F5
:1039900054003C2101EA900220460121C4F8CC22C7
:1039A00003B0BDE8F04FFFF737BA0000002804BFAE
:1039B00001207047F0B581B0044690F8910228B913
:1039C000002084F89002204600F0FEF8032084F8DE
:1039D0009102206807F01CFC94F804E0BEF1000F8F
:1039E00000F0E0800EF0030CBEF1040F4FF0000277
:1039F00038D30EF0FC03A4F1A0000321012500BF81
:103A0000CE1E80F8B0608E1E80F8D8604E1E80F802
:103A1000006180F828110E1D013180F8B15080F846
:103A2000B320C0E93022C0F8C82080F8D95080F80F
:103A3000DB20C0E93A22C0F8F02080F8015180F87C
:103A40000321C0E94422C0F8182180F8295180F8E8
:103A50002B21C0E94E22C0F84021A03099423146C6
:103A6000CED1F21EBCF1000F2ED004F1100002EBFB
:103A7000820100EBC105012300F831200021BCF1D7
:103A8000010F6B70E970C5E90411A9611CD0551CC8
:103A900005EB850600EBC607BCF1020F7B7000F852
:103AA0003650F970C7E90411B9610DD0911C01EBD2
:103AB000810200EBC203012500F8321000205D7086
:103AC000D870C3E904009861BEF1000F6AD0BEF15E
:103AD000040F4FF0000235D30EF0FC000321234603
:103AE000CF1E83F850718F1E83F878714F1E83F8B4
:103AF000C8110D1D013183F8512183F85321C3E909
:103B00005822C3F8682183F8792183F87B21C3E91F
:103B10006222C3F8902183F8A12183F8A07183F871
:103B2000A321C3E96C22C3F8B82183F8C92183F823
:103B3000CB21C3E97622C3F8E021A0338142294694
:103B4000CED1EA1EBCF1000F2CD004F5A87002EB18
:103B5000820300EBC3070021BCF1010F797000F86C
:103B60003320F970C7E90411B9611BD0531C03EB72
:103B7000830700EBC706BCF1020F717000F8373005
:103B8000F170C6E90411B1610CD0911C01EB810206
:103B900000EBC20300275F7000F83210DF70C3E94A
:103BA00004779F6194E8070007F024FB00200121BF
:103BB000207384F89112A17A012903D12046FFF7DE
:103BC00015F9002001B0F0BD10B596B0044601A86B
:103BD00004305021FCF766FB206845F60041C4F232
:103BE0000001884202D016B010BD00BF4FF4005053
:103BF000019001A800F01EF9002818BFFDF79CF8FD
:103C000041F25800C4F202000168002241F40001B0
:103C100001600068002100F400000090009814206A
:103C2000FFF7A8F81420FFF793F816B010BD0000B6
:103C300010B504464079022818BFFDF77DF8D4F886
:103C4000D802012106F07CFDD4F8D802BDE810406E
:103C500006F026BD10B50446407A48B14EF6105025
:103C6000CEF20000016821F00601016004F0C6FDFB
:103C7000D4F8D802BDE8104006F046BDD0F8D8020E
:103C800006F04CBD90F89022012A04BF0220704734
:103C900010B5012280F89022017302680446104694
:103CA00007F0B8FE002084F8900210BDD0F8D822AA
:103CB00000F52671104606F059BD000090F89012EC
:103CC000012904BF0220704710B50168012280F865
:103CD00090220446084607F03BFE206807F080FA71
:103CE000002084F8900210BD10B50446D0F8D80228
:103CF00006F092FD607A002808BF10BD4EF6105005
:103D0000CEF20000016841F00601016010BD000024
:103D100047F21401C4F2000151F8142CB0F5007FF1
:103D20003CD0002874D1C86E02F4C06220F48070C8
:103D3000B2F5806FC8662FD151F8140C012262F3DE
:103D40004A2041F8140C40F2E820C2F2000000685A
:103D5000322250434DF68362C4F21B32A0FB0202B2
:103D6000900C00BF0A68520511D5421C0FD00A689A
:103D700052050CD558B10A68520508D5012806D05D
:103D80000A68520503D50228A0F10400EAD10868A8
:103D9000400544BF0320704700207047C86E02F4FE
:103DA000C06240F48070B2F5806FC866F4D151F8FB
:103DB000140C012262F34A2041F8140C40F2E8206E
:103DC000C2F200000068322250434DF68362C4F212
:103DD0001B32A0FB0202900C0A68520511D5421C4E
:103DE0000FD00A6852050CD558B10A68520508D59B
:103DF000012806D00A68520503D50228A0F1040064
:103E0000EAD10868400544BF03207047C4E700BFFB
:103E1000022060F34A2241F8142C00207047000071
:103E200047F20800C4F20000016841F480410160DB
:103E3000704700002DE9F04182B00446807841F2DD
:103E400088060007C4F2020602D400202FE000BF5B
:103E500056F8300C5FEAC0080BD456F8300C40F02E
:103E6000805046F8300C56F8300C00F0805001902D
:103E7000019847F20007C4F20007386840F48070E8
:103E80003860FDF729FF05463868C00500F10C8150
:103E9000FDF722FF401B0228F6D90320B8F1000FDE
:103EA00005D456F8301C21F0805146F8301C2168AA
:103EB000CA0717D18A071DD44A0723D40A0729D471
:103EC000CA062FD48A0635D44A063BD40A0641D402
:103ED000CA0547D48A034DD48A0553D44A0559D418
:103EE00067E000BF3268636822F003021A43326061
:103EF0008A07E1D53268A36822F00C021A433260C7
:103F00004A07DBD53268E36822F030021A43326098
:103F10000A07D5D53268236922F0C0021A433260FD
:103F2000CA06CFD53268636922F440721A43326000
:103F30008A06C9D53268A36922F440621A43326006
:103F40004A06C3D53268E36922F440521A4332600C
:103F50000A06BDD53268236A22F440421A43326011
:103F6000CA05B7D53268636A22F440321A43326018
:103F70008A03B1D57269A36A22F003021A437261FF
:103F80008A05ABD53268E36A22F440221A433260D4
:103F90004A050ED53268236B22F440121A43B3F55A
:103FA000801F326005D156F87C2C42F4801246F80E
:103FB0007C2C0A050ED53268636B22F440021A434A
:103FC000B3F5800F326005D156F87C2C42F4801294
:103FD00046F87C2CCA040ED53268A36B22F04072DE
:103FE0001A43B3F1807F326005D156F87C2C42F43D
:103FF000801246F87C2C8A040ED53268E36B22F0DE
:1040000040621A43B3F1006F326005D156F87C2C40
:1040100042F4801246F87C2C4A040ED53268236C98
:1040200022F040621A43B3F1006F326005D156F8B6
:104030007C2C42F4801246F87C2C0A040ED532689F
:10404000636C22F040521A43B3F1805F326005D1B5
:1040500056F87C2C42F4803246F87C2CCA030ED5EC
:104060003268A36C22F040421A43B3F1804F3260B1
:1040700005D156F87C2C42F4803246F87C2C49035A
:104080000ED57169E26C21F440111143B2F5001FA5
:10409000716105D156F87C1C41F4801146F87C1CF6
:1040A00002B0BDE8F08100BFB06810F4407010D0DD
:1040B000216D88420BD0B068B16820F4407041F4A3
:1040C0008031B160B16821F48031B160B060C00767
:1040D0000CD1B068216D20F440700843B06000201E
:1040E000B8F1000F3FF5E3AEDBE600BFFDF7F4FDEE
:1040F000054641F2883700BFB0688007E9D4FDF774
:10410000EBFD401BB842F7D9C7E600002DE9F047A8
:1041100000285BD042F2000AC4F2020A0446DAF830
:1041200000000D4600F00F0088420CD2DAF80000C3
:1041300020F00F002843CAF80000DAF8000000F071
:104140000F00A84242D1216841F20808C807C4F212
:10415000020803D1880740F1C080A5E0606858F8E4
:10416000082C022830D0032834D192012ED5D8F85B
:104170000420D8F8042042F20043C2F30312D8F816
:1041800004700132C0F2F403B3FBF2F2C7F306236A
:10419000D8F804705A43C7F34163022707EB43037F
:1041A000B2FBF3F24BF20043C0F2C4439A4251D93E
:1041B000D8F8002012F0F00F41D089074AD5A16845
:1041C000002947D13BE000BF910305D40120BDE8A1
:1041D000F08700BF5105F9D5D8F8001001F00C01A7
:1041E000042937D0D8F8001001F00C01082931D08B
:1041F000D8F8001001F00C010C292BD1D8F80410CC
:10420000D8F8041042F20042C1F30311D8F8043088
:104210000131C0F2F402B2FBF1F1C3F30622D8F887
:1042200004305143C3F34162022303EB4202B1FB6A
:10423000F2F14BF20042C0F2C44291420AD9D8F8DE
:104240000010082262F307114FF00109C8F80010AE
:1042500002E000BF4FF00009D8F8001021F0030180
:104260000843C8F80000FDF737FD064641F28837DD
:10427000D8F80000616800F00C00B0EB810F07D0A7
:10428000FDF72AFD801BB842F2D90320BDE8F08774
:104290002168880708D4B9F1000F1ED0D8F80000B3
:1042A00020F0F00017E000BF480705D5D8F800005F
:1042B00040F4E060C8F80000080706D5D8F8000010
:1042C000072262F30D20C8F80000D8F80000A268A9
:1042D00020F0F0001043C8F80000DAF8000000F009
:1042E0000F00A8421BD9DAF8000020F00F00284385
:1042F000CAF80000FDF7F0FC064641F2883700BF1F
:10430000DAF8000000F00F00A84207D0FDF7E4FC47
:10431000801BB842F4D90320BDE8F0872168480724
:1043200007D5D8F80000E26820F4E0601043C8F830
:104330000000080708D5D8F80000216920F4605073
:1043400040EAC100C8F80000D8F8000000F00C00F6
:10435000042842F20040C0F2F40024D0D8F8001043
:1043600001F00C0108291ED0D8F8001001F00C0152
:104370000C2917D1D8F80410D8F80410D8F8042064
:10438000C1F303110131B0FBF1F0C2F30621D8F8FB
:1043900004204843C2F34161022202EB4101B0FB19
:1043A000F1F000E00020D8F800104DF2F012C1F357
:1043B0000311C0F60002515C40F2E82201F01F0137
:1043C00020FA01F140F23000C2F200000068C2F2AF
:1043D00000021160BDE8F047FEF778BC40F2E8202B
:1043E00041F20801C2F20000C4F20201006809684B
:1043F0004DF20022C1F30221C0F60002515C01F02F
:104400001F01C8407047000040F2E82041F2080157
:10441000C2F20000C4F20201006809684DF20022F5
:10442000C1F3C221C0F60002515C01F01F01C84077
:104430007047000041F20C01C4F2020151F8040C73
:1044400000F00C00042842F20040C0F2F40008BF63
:10445000704751F8042C02F00C02082A1AD051F8C7
:10446000042C02F00C020C2A1CBF002070470A68C2
:104470000A680B68C2F303120132B0FBF2F009685C
:10448000C3F306225043C1F34161022202EB410112
:10449000B0FBF1F070470000002804BF0120704716
:1044A0002DE9F04182B00446007841F20006C007D1
:1044B000C4F202061ED1207880073DD42078000780
:1044C00064D42078400700F187802078800600F1CE
:1044D000D980E569002D00F04282B06800F00C0040
:1044E0000C2840F03181012D40F08E81012002B076
:1044F000BDE8F081B06800F00C01F068082961D0D7
:10450000032281F00C0122EA00000844B0FA80F096
:10451000400957D161683068B1F5803F07D0B1F5E7
:10452000A02F40F0E38040F480203060306840F4F9
:1045300080303060E4E000BFB068F16800F00C004B
:10454000042871D001F0030180F00C0081F0020119
:104550000844B0FA80F0400966D1E168306800296B
:1045600000F0E08040F480703060FDF7B5FB054658
:104570003068400500F10A81FDF7AEFB401B0228C0
:10458000F6D9032002B0BDE8F08100BF6169D6F81A
:104590009400002900F0948040F00100C6F89400D7
:1045A000FDF79AFB054600BFD6F8940080073FF55B
:1045B00088AFFDF791FB401B0228F5D9032002B01C
:1045C000BDE8F081306880037FF575AF6068002832
:1045D0007FF471AF3EE000BFB06D5FEAC00808D461
:1045E000B06D40F08050B065B06D00F0805001902B
:1045F000019847F20007C4F200073868C0052DD4BF
:10460000386840F480703860FDF766FB054600BFEF
:104610003868C00522D4FDF75FFB401B0228F7D99C
:10462000032002B0BDE8F0813068400501D5E068A4
:1046300080B17068216920F0FE4040EA016070603E
:1046400040F23000C2F200000068FEF73FFB002895
:104650003FF434AF012002B0BDE8F081A168D6F884
:104660009000012908D0052940F0AE8040F00400F8
:10467000C6F89000D6F8900040F00100C6F890000F
:10468000AEE000BFA169D6F89800002900F086804E
:1046900040F00100C6F89800FDF71EFB054600BF7C
:1046A000D6F8980080073FF514AFFDF715FB401BC7
:1046B00002284FF00300F3D902B0BDE8F08100BF3B
:1046C00020F00100C6F89400FDF706FB054600BF88
:1046D000D6F8940080077FF5F4AEFDF7FDFA401B95
:1046E0000228F5D9032002B0BDE8F08120F4803023
:1046F00030603068002920F48020306000F0BE80F7
:10470000FDF7EAFA054600BF306880033FF5D3AEF7
:10471000FDF7E2FA401B6428F6D9032002B0BDE899
:10472000F08100BF20F480703060FDF7D5FA0546B7
:10473000306840057FF5C2AEFDF7CEFA401B022877
:104740004FF00300F4D9B7E7306820F08070306094
:10475000FDF7C2FA022D05460CD100BF306880017A
:1047600040F1B880FDF7B8FA401B02284FF0030073
:10477000F4D9A1E73068800140F1EA80FDF7ACFA96
:10478000401B02284FF00300F4D995E770682169B7
:1047900020F0FE4040EA016070608FE620F00100EA
:1047A000C6F89800FDF798FA054600BFD6F89800BD
:1047B00080077FF58EAEFDF78FFA401B02284FF081
:1047C0000300F3D978E700BF20F00100C6F890009D
:1047D000D6F89000002920F00400C6F890005DD0C3
:1047E000FDF77AFA054641F2883700BFD6F8900007
:1047F000800765D4FDF770FA401BB842F6D9032054
:1048000002B0BDE8F08100BFF068216A00F0030249
:104810008A427FF41FAF626A6FF00F0300F0F0016D
:1048200003EB021291427FF415AFA16A00F4FE423D
:10483000B2EB012F7FF40EAFE16A00F07842B2EBE9
:10484000C16F7FF407AF226B0023CFF6E07303EA5A
:10485000025200F4C001A2F5001291427FF4FAAEB8
:10486000616B4FF07E4202EA016100F0C06001F12D
:104870007E4188427FF4EEAE71E000BFFDF72CFA76
:10488000054600BF306880037FF515AEFDF724FABA
:10489000401B64284FF00300F4D90DE7FDF71CFA24
:1048A000054641F2883700BFD6F89000800707D54B
:1048B000FDF712FA401BB8424FF00300F4D9FBE6B3
:1048C000B8F1000F3FF501AEB06D20F08050B0653B
:1048D000FBE500BFF06848F20C01C0F29F1104F143
:1048E000200700EA010C8ECF6FF00F00D4E90C54C2
:1048F00000EB02100022CFF6E07241EA0C0102EA5E
:1049000005520843A2F500124FF07E4540EA03200D
:1049100005EA0465104305F17E4540EAC760284377
:10492000F060306840F080703060F06840F0807077
:10493000F060FDF7D1F90446306880010FD4FDF72F
:10494000CBF9001B02284FF00300F5D9B4E600BFF5
:10495000F0684FF6FC71CFF6EE610840F060002081
:1049600002B0BDE8F081000070470000002804BFDD
:1049700001207047416A19B100210161142104E04E
:104980004168B1F5827F02D01C2100224250B0B5AF
:104990000025856290F85D1029B980F85C500446C6
:1049A00000F056F82046022180F85D100168D0F82A
:1049B0000CE00B68BEF5E06F23F040030B6098BF7E
:1049C00001254EF40063B3F5706F4FEA053C1CBF40
:1049D00000258562D0E90154D0E9043205F48275DE
:1049E00004F404442C4403F002032344846902F0D9
:1049F0000102C5691A4404F400731A4405F038032F
:104A0000056A1A4405F08003856A1A4405F40053C8
:104A10001A430A600422436A0EF4706502EA1442E3
:104A2000446B45EA0C0503F010032A4304F0080424
:104A30001A4322434A60CA6922F40062CA61002113
:104A40000122016680F85D20BDE8B040084670474D
:104A500070B586B00446006843F60041C4F2000118
:104A600000268842CDE90466CDE90266019601D0B0
:104A700006B070BD41F24C00C4F20200C16841F4BE
:104A80000041C160C16801F40041009100990168D2
:104A900041F004010160006801A900F004000090E9
:104AA00000984FF4A05001900220CDE902060620A4
:104AB000059040F60000C4F600000496FDF72CF8BF
:104AC0004AF640659420C2F20005C4F202000F21AC
:104AD0001022802385E847002846C5E90436C5E949
:104AE00006662E62FCF704FF002818BFFCF724F9C5
:104AF0006565AC6206B070BD2DE9F04182B01D461F
:104B000016460F460446FDF7E7F894F85D100129B4
:104B10000ED18046002F4FF0010018BF002E03D1A8
:104B200002B0BDE8F08100BF94F85C00012803D119
:104B3000022002B0BDE8F081012084F85C0003206F
:104B4000002184F85D002166A763A687E6872164BB
:104B5000A4F84410A4F84610A068E164B0F5004F32
:104B60002068216507D1016821F0400101600168DA
:104B700041F4804101600168490603D4016841F0B5
:104B8000400101606168731EE268B1FA81F1B3FA15
:104B900083F349095B09B2F5E06F41EA030143D9A8
:104BA00031B137F8021BC160A763E08F0138E0879D
:104BB000E08F002876D0681C0BD124E0A16B31F87F
:104BC000022BC260A163E08F0138E087E08F0028EC
:104BD00068D0206881688907F0D4FDF77DF8A0EBE4
:104BE0000800A842F2D3012084F85D00002084F878
:104BF0005C00032002B0BDE8F08100BFFDF76CF857
:104C0000E08F00284ED0206881688907F6D5A16B17
:104C100031F8022BC260A163E08F0138E087E08F9A
:104C20000028F0D13EE000BF89B1E18F02294FF6A4
:104C3000FE7103D337F8022BC26004E03A780131E9
:104C40000273A06B471CA763E08F0844E087E08FE6
:104C500040B3681C5FD04FF6FE70461C08E000BFF2
:104C6000FDF73AF8A0EB0800A842BCD2E08FC8B12B
:104C7000216888688007F3D5E28FA06B022A05D3EC
:104C800030F8022BCA604FF6FE7104E0007808731A
:104C9000A06B31460130A063E08F0844E087E08FCD
:104CA0000028E5D120464FF4C0512A46434602F081
:104CB00023FF68B920462946424602F0DDFF38B995
:104CC00020464FF4C0612A46434602F015FF28B142
:104CD000206E40F02000206620202066A06838B9B1
:104CE000002001902068C1680191806801900198BE
:104CF000012084F85D00002084F85C00206E00280C
:104D000018BF012002B0BDE8F08100BFFCF7E4FF4E
:104D1000E08F0028C6D0206881688907F6D5E28F29
:104D2000A16B012A08D931F8022BC260A163E08F80
:104D30000238E087ECE700BF09780173A06B01300F
:104D4000A063E08F0138E087E2E7000090F85D3073
:104D5000012B0BD100294FF0010318BF002A01D10C
:104D60001846704790F85C30012B03D10223184697
:104D7000704700BF70B5012380F85C30032380F8D2
:104D80005D300023036681638287C2870364C0E9C4
:104D90001333A0F84430A0F8463084680268B4F5B4
:104DA000004F07D1146824F040041460146844F4E0
:104DB00080441460D0F854C047F6512E47F6592568
:104DC00047F63126C0F6000EC0F60005C0F6000614
:104DD000CCE90B5ECCE90D63C4685368B4F5E06FB1
:104DE00023F48043536017D8DCF81830B3F5806F94
:104DF00012D1C68F5368F60706D123F4804353605F
:104E0000C38F5B0807E000BF43F480435360C38F48
:104E1000012606EB5303C387C38F04460C3260465A
:104E2000FCF7F2FD60B1206E012340F01000206617
:104E3000002084F85C00BDE870401846704700BF51
:104E400020680168490603D4016841F0400101600F
:104E5000002384F85C30416841F0200141604168E2
:104E600041F002014160BDE8704018467047000003
:104E70007047000070470000411E0020B0EB116F2A
:104E80001CBF012070474EF21002CEF200025160AA
:104E90004EF62351CEF20001F0230B7007219060F3
:104EA0001160704790F83C20012A04BF022070472F
:104EB000B0B5D1E90232D1E900CE22F47C5223F41C
:104EC000705343EA020448F2FF73CEF6F0730EEA21
:104ED0000302224303F5006404EA0C0442EA040CD2
:104EE0000C6903F5C05222404C6942EA0C0222438D
:104EF00003F5605422400C6B03F5F04323401A4342
:104F00008B6940F2000CCC69CEF6FF7C0CEA034CB6
:104F10001443026842F60043C4F201039A4244EA91
:104F20000C030BD045F20004C4F20104A24205D0E8
:104F300043F20044C4F20104A24217D14FF6FF74B9
:104F4000CDF60F4403EA040ED1E9084CD1E90A3149
:104F50000025CDF6F04505EA035343EA0E0324F09D
:104F600008552B432CF000552B430B430021536471
:104F700080F83C100020B0BD90F83C20012A4FF092
:104F8000020266D070B580F83D20026842F6004CFF
:104F900054689368C4F2010C45F2000E6245C4F2F5
:104FA000010E18BF72452BD14D6824F470042C43B8
:104FB0004FF68F75CFF6FF550E682C4042F6FF3541
:104FC000C4F201053443AA4254600DDC40F2FF767E
:104FD000C4F20006B2421BDCB2F1804F2CD040F28A
:104FE0000046C4F2000625E043F6FF74C4F2010453
:104FF000A24219DC62451FD043F2004618E000BF10
:1050000043F20045C4F20105AA42CDD0D0E700BF6B
:1050100040F60006C4F20006B2420DD040F600464B
:10502000C4F2000606E000BF724505D044F2000657
:10503000C4F20106B24204D1896823F08003194307
:1050400091600121002280F83D1080F83C20BDE8ED
:105050007040104670470000002804BF01207047D0
:1050600010B5044690F83D0028B9002084F83C00B3
:10507000204600F023F8022084F83D002068211D1E
:1050800003F0FEFB012084F8480084F83E0084F819
:105090003F0084F8400084F8410084F8420084F81E
:1050A000430084F8440084F8450084F8460084F8FE
:1050B000470084F83D00002010BD000080B586B098
:1050C000006843F20042C4F2010200219042CDE99F
:1050D0000411CDE90211019114D041F20001C4F292
:1050E0000001884234D141F24C00C4F20200C16890
:1050F00041F01001C160C06800F0100000900098FD
:1051000006B080BD41F24C00C4F20200426942F494
:1051100000524261426902F400520092009A026811
:1051200042F002020260006800F002000090009865
:105130004FF4007001900220CDE902010A20059091
:1051400040F200400491C4F6000001A9FCF7E4FC21
:1051500006B080BD90F83D10012917D1022180F8DA
:105160003D10016842F6FF30C4F2010081420FDCBD
:1051700040F2FF70C4F20000814219DCB1F1804FAF
:105180002ED040F20040C4F2000027E0012070471A
:1051900043F6FF70C4F20100814215DC42F6004084
:1051A000C4F2010081421BD043F2004014E000BF72
:1051B00040F60000C4F20000814211D040F60040E9
:1051C000C4F200000AE000BF45F20000C4F2010092
:1051D000814205D044F20000C4F2010081420CD1AA
:1051E00088680722C0F201020240062A4FF0000040
:1051F000CDD0B2F5803F08BF7047086840F001008D
:10520000086000207047000090F83C20012A4FF011
:10521000020200F0998080B580F83D20D0F800C0EF
:105220008822DCF80830CFF6CE721A40CCF808207D
:105230000B68B3F5005F0DDA3F2B21DD5F2B3BDD03
:10524000602B00F0AB80702B00F09480B3F5805F92
:1052500071D0E7E02F22C0F21002934218DD4F21F7
:10526000C0F210018B424FDD5021C0F210018B4281
:1052700055D06021C0F210018B4250D0702149E01E
:105280001F2B0FDC002B4AD0102B48D0CAE000BFE8
:10529000B3F1101F0CDAB3F5005F57D0B3F5801FE0
:1052A0003DD0BFE0202B3AD0302B38D0BAE000BF41
:1052B00035D020212EE000BF402B00F09180502BF4
:1052C00040F0B080D1F804E0C968DCF82030DCF8A8
:1052D000202022F00102CCF82020DCF8182022F057
:1052E000F00242EA011123F00A0242EA0E02CCF86F
:1052F0001810CCF82020DCF808104FF68872CFF692
:10530000CF721140573114E03021C0F210018B42AE
:1053100005D04021C0F210018B4240F08380DCF8C0
:1053200008104FF68872CFF6CF721140194341F042
:105330000701CCF808100022012180F83D1000215F
:1053400080F83C10BDE8804010467047D1E901E389
:10535000C968DCF8082043EA0E0322F47F4243EADE
:1053600001211143CCF80810DCF8081041F4804109
:10537000DFE700BFD1E901E3C968DCF8082043EAB0
:105380000E0322F47F4243EA01211143CCF80810B6
:10539000DCF8081041F07701CBE700BFD1F804E05A
:1053A000C968DCF82030DCF8202022F01002CCF8AC
:1053B0002020DCF8182022F4704242EA013123F068
:1053C000A00242EA0E12CCF81810CCF82020DCF82B
:1053D00008104FF68872CFF6CF7211406731A8E7F8
:1053E000D1F804E0C968DCF82030DCF8202022F095
:1053F0000102CCF82020DCF8182022F0F00242EA6A
:10540000011123F00A0242EA0E02CCF81810CCF87F
:105410002020DCF808104FF68872CFF6CF721140CA
:10542000473186E7012287E7002804BF0120704743
:105430002DE9F047044690F83D000D4628B90020BC
:1054400084F83C00204600F04BF8022084F83D0030
:1054500020684BF6F8728168CFF6FE7211408160C9
:10546000211D03F00DFA20684FF6FF7881688269EC
:10547000D0F820C0D5E9003ED5E9026A43EA010927
:10548000AB6922EA080246EA03234FF6FC46B3431F
:10549000D5E9076742EA0A0229691A4342EA062265
:1054A00042EA01112CF0AA026B6942EA0E0241EABB
:1054B000073142EA0312C0F80890816102620120BC
:1054C00084F8480084F83E0084F83F0084F84400E3
:1054D00084F8450084F83D000020BDE8F087000016
:1054E00080B586B0006840F20041C4F200018842F5
:1054F0004FF000010591CDE90311CDE9011143D031
:1055000040F60001C4F2000188421DD042F600417D
:10551000C4F2010188425CD141F24C00C4F20200A5
:10552000416941F400614161416901F40061009108
:105530000099016841F004010160006800F0040076
:1055400000900098032036E041F24C00C4F20200C3
:10555000C16841F00401C160C16801F0040100911B
:105560000099016841F002010160006800F002004A
:1055700000900098C020019040F60000C4F60000A2
:10558000A0F580601CE000BF41F24C00C4F20200B4
:10559000C16841F00201C160C16801F002010091DF
:1055A0000099016841F004010160006800F0040006
:1055B00000900098C020019040F60000C4F6000062
:1055C000022102910022059101A9CDE90322FCF7F5
:1055D000A3FA06B080BD000080B590F83E2090F898
:1055E0003F3090F844E090F845C004290AD0B9B99A
:1055F000012A4FF0010208BFBEF1010F34D010465E
:1056000080BD00BF012B4FF0010208BFBCF1010FAC
:10561000F5D1022180F83F1080F8451000681EE0A7
:10562000012A4FF0010208BF012BE8D1BEF1010FA2
:10563000E5D1BCF1010FE2D1022280F83E2080F8D2
:105640003F2080F8442080F8452091B10068016A2D
:1056500021F001010162016A41F0010101621021A2
:105660006FF0100209E000BF022180F83E1080F8C0
:105670004410006801216FF00102036A1A400262BF
:10568000026A114301620168002241F001010160D8
:10569000104680BD7047000080B586B0006845F2B6
:1056A0000001C4F2010188424FF000010591CDE9EB
:1056B0000311CDE9011119D043F20041C4F20101F7
:1056C000884231D141F24C00C4F2020001684FF42B
:1056D000004241F0010101600068022100F0010078
:1056E000009000984FF0904014E000BF41F24C0051
:1056F000C4F2020001684FF4807241F004010160BD
:105700000068062100F004000090009840F60000B8
:10571000C4F600000192022202920022059101A922
:10572000CDE90322FCF7F8F906B080BD90F83C30D3
:10573000012B04BF022070474FEAB202052A00F293
:10574000ED812DE9F041DFE812F0070047019300F9
:10575000ED0055009F0100BF03681D6A1A6AA3F19E
:10576000804622F001021A621A46D3F8048052F8E9
:1057700018CF8F68A6F59636D1F800E025F002051F
:105780004FEAB626092E45EA07050BD80127B74090
:1057900040F2E52427421FBFCC6825F00C0524F019
:1057A00004042543092E0CD80124B44040F2E52618
:1057B00034421FBFD1E9054628F440773C4344EA10
:1057C00006084FF68C74CFF6FE740CEA040747EA1D
:1057D0000E07C3F804809F614F6809695F631D620B
:1057E0009F6947F008079F619F6927F004079F6141
:1057F00088E100BF0368D3F820C01A6AA3F180478C
:1058000022F480321A621A46A7F596375D6852F87C
:10581000508FD1F800E08E684FEAB727092F0AD8D9
:105820000124BC4040F2E5273C421EBF4C6925F4F0
:10583000803545EA04252CF4003747EA06474FF641
:105840008C76CFF6FE76033606EA080646EA0E06A2
:105850005D601E654E6809699E641F621F6D47F09A
:1058600008071F651F6D27F004071F654AE100BF89
:10587000036842F600461D6A1A6AC4F2010622F461
:1058800080721A621A46D3F804C052F81CEFB34271
:105890008E68D1F8008025F4007545EA06250BD006
:1058A00045F20006C4F20106B34205D043F20046B9
:1058B000C4F20106B34207D1CE6840F2FF47360278
:1058C00025F44065BE433543A3F18046A6F59636E0
:1058D0004FEAB626092E0DD8012707FA06F640F240
:1058E000E5273E421FBFD1E905672CF440543743FA
:1058F00044EA071C4FF68C74CFF6FE740EEA0407D8
:1059000047EA0807C3F804C0DF614F680969DF632D
:105910001D62DF6947F00807DF61DF6927F00407D0
:10592000DF61EFE0036842F600461D6A1A6AC4F2BE
:10593000010622F480521A621A46D3F804C052F8C3
:105940001C8FB3428E68D1F800E025F4005545EA7B
:1059500006350BD045F20006C4F20106B34205D06D
:1059600043F20046C4F20106B34207D1CE6844F6C2
:10597000FF77360325F44045BE433543A3F1804607
:10598000A6F596364FEAB626092E0DD8012707FA56
:1059900006F640F2E5273E421FBFD1E905672CF429
:1059A0004044374344EA871C48F6FF44CFF6FF647F
:1059B00004EA080444EA0E27C3F804C0DF614F6814
:1059C00009691F641D62DF6947F40067DF61DF69F1
:1059D00027F48067DF6194E0036842F600461D6AA1
:1059E0001A6AC4F2010622F010021A621A465C68B2
:1059F00052F818CFB3428E68D1F800E025F02005A8
:105A000045EA06150BD045F20006C4F20106B34282
:105A100005D043F20046C4F20106B34207D1CE6876
:105A20006FF0400725F0C00507EA06163543A3F1DD
:105A30008046A6F596364FEAB626092E0DD80127E0
:105A400007FA06F640F2E5273E421FBFD1E9056797
:105A500024F440643E4344EA860448F6FF46CFF609
:105A6000FF660CEA060747EA0E275C609F614F68F5
:105A700009699F631D629F6947F400679F619F6981
:105A800027F480679F613CE00368D3F820C01A6A5E
:105A9000A3F1804722F480121A621A46A7F59637BE
:105AA0005D6852F8508FD1F800E08E684FEAB72752
:105AB000092F0AD80124BC4040F2E5273C421EBF12
:105AC0004C6925F4802545EA84252CF4001747EA23
:105AD000065748F6FF46CFF6FF6606F5407606EA1B
