:020000040800F2
:10000000880B0020A502000851230008492300089E
:100010004D2300089D040008E52B000800000000A7
:10002000000000000000000000000000592300084C
:10003000A104000800000000552300085D2300080B
:10004000BF020008BF020008BF020008BF0200088C
:10005000BF020008BF020008BF020008BF0200087C
:10006000BF020008BF020008BF020008BF0200086C
:10007000BF020008BF020008BF020008BF0200085C
:10008000BF020008BF020008BF020008BF0200084C
:10009000BF020008BF020008BF020008BF0200083C
:1000A000BF020008BF020008BF020008BF0200082C
:1000B000BF020008BF020008BF020008BF0200081C
:1000C000BF020008BF020008BF020008BF0200080C
:1000D000BF020008BF020008BF020008BF020008FC
:1000E000BF020008BF020008BF020008BF020008EC
:1000F000BF020008BF020008BF020008BF020008DC
:10010000BF020008BF020008BF020008BF020008CB
:10011000BF020008BF020008BF020008BF020008BB
:10012000BF020008BF020008BF020008BF020008AB
:10013000BF020008BF020008BF020008BF0200089B
:10014000BF020008BF020008BF020008BF0200088B
:10015000BF020008BF020008BF020008BF0200087B
:10016000BF020008BF020008BF020008BF0200086B
:10017000BF020008BF020008BF020008BF0200085B
:10018000BF020008BF020008BF020008BF0200084B
:10019000BF02000800000000BF020008BF02000804
:1001A000BF020008BF020008BF020008BF0200082B
:1001B000BF020008BF020008BF020008BF0200081B
:1001C000BF020008BF020008BF020008BF0200080B
:1001D000BF020008BF02000800F002F800F052F869
:1001E00014A696E8000CB244B344DA4501D100F0FD
:1001F00049F8BAE80F000FA696E83000A5EB040511
:1002000004EB0607AAEB0704A7F101074FEA15154F
:100210004FEA3414A4F10104AC4201D300F032F8E7
:1002200013F0010F18BFFB1A43F0010300F001F8AF
:10023000DBE71847742F0000942F0000103A24BF0A
:1002400078C878C1FAD8520724BF30C830C144BF3B
:1002500004680C6070470000704700000023002411
:1002600000250026103A28BF78C1FBD8520728BFC6
:1002700030C148BF0B6070471FB502F060FF1FBD63
:1002800010B510BD00F0D0F81146FFF7F5FF02F0F1
:10029000ABFC00F0EEF803B4FFF7F2FF03BC00F094
:1002A000F5F800000948804709480047FEE7FEE7E7
:1002B000FEE7FEE7FEE7FEE7FEE7FEE7FEE7FEE716
:1002C00004480549054A064B7047000061230008B1
:1002D000D901000888050020880B0020880700202D
:1002E0008807002053EA020C00F069802DE9F04BEA
:1002F0004FF00006002B1FBFB3FA83F503FA05F495
:1003000024FA05F65E4012BF1643B2FA82F502FAED
:1003100005F4C5F120051EBF22FA05FC44EA0C04D1
:10032000203556EA044C4FEA144418BF641C4FF0C1
:1003300000084FF00009904271EB030C39D30029FB
:1003400019BFB1FA81F701FA07F6B0FA80F700FA9F
:1003500007F6C7F120071EBF20FA07FC46EA0C0685
:100360002037B6FBF4FCA7EB0507103F07F01F0B87
:10037000CBF120062CFA06F60CFA0BFB44BFB34671
:100380000026202FA4BF5E464FF0000B5BEA060C50
:1003900008BF4FF0010B19EB0B0948EB0608ABFB4C
:1003A000027C06FB02CC0BFB03CCC01B71EB0C01E7
:1003B000C1E70B46024641464846BDE8F08B13B5FF
:1003C000084318BF4FF0FF300146AFF30080BDE88F
:1003D0001C4070474FF0000200B513469446964605
:1003E000203922BFA0E80C50A0E80C50B1F1200148
:1003F000BFF4F7AF090728BFA0E80C5048BF0CC0F6
:100400005DF804EB890028BF40F8042B08BF704753
:1004100048BF20F8022B11F0804F18BF00F8012BC5
:100420007047704770477047754600F02BF8AE462E
:1004300005006946534620F00700854618B020B5F0
:10044000FFF73EFFBDE820404FF000064FF00007E9
:100450004FF000084FF0000BAC46ACE8C009ACE828
:10046000C009ACE8C009ACE8C00921F007018D461D
:10047000704710B50446AFF300802046BDE8104039
:10048000FFF709BF004870471000002001491820FD
:10049000ABBEFEE72600020070470000FEE700004A
:1004A00070470000EFF3108072B600BFFEE7000057
:1004B00090F85820012A04BF0220704770B582B01E
:1004C000002201920092026840F2080EC5F2000E6E
:1004D000B2F1A04F0EF1F80508D040F20043C5F28A
:1004E00000039A4234D10EF59F6300E02B469B68CF
:1004F000946823435B072BD44FF4E063D1F800C02A
:10050000AA4208BF4FF44073B2F1A04F08BF4FF4A6
:1005100040735EF80340BCF1000F24F4604425D022
:100520004D6890F8386042F4807245EA46352C43B5
:1005300040F20015C5F20005AA424EF8034027D14B
:10054000DEF80020DEF800412243D20748D129E03E
:10055000C16D41F02001C1650121002280F85820C1
:1005600002B0BDE870400846704700BF42F4807199
:1005700040F20012C5F2000291424EF803401BD136
:10058000DEF80010DEF800211143C90728D11DE074
:10059000DEF80044DEF80055DEF800262C43224346
:1005A000D2071DD15EF8032040F61F748968A2436C
:1005B000114341EA0C010EE0DEF80024DEF800658C
:1005C000DEF8001632431143C90709D15EF8031063
:1005D00040F61F7291434EF803100021BDE700BFA3
:1005E0000021BAE7F0B581B00022009290F85820BF
:1005F000012A03D10221084601B0F0BD012307689A
:1006000080F85830BB685B0734D4D1E900351F2629
:10061000C5F3012407EB8404226B05F01F05AE40EF
:10062000C3F38463B243AB401A432263BA68BB6826
:1006300002F0040203F00803D21840F0BC800A68FC
:1006400007F114030426C2F34064D1F808E006EA77
:10065000D25C53F82440C2F304550722AA40BEF1ED
:10066000004F24EA02040BD143F80C401A6842F010
:1006700000430DE0C16D41F02001C165012167E13A
:100680000EFA05F2224343F80C201A6822F00043C8
:100690007B61D1E90435FC68042B5FD13A6E3A6E78
:1006A0000B68C2F3846293FAA3F6C3F3846C6FF30E
:1006B000DF43B6FA86F5002B2C464FF6FF7E08BFC7
:1006C0006446A242C0F2070E0CD13A6E22F00042FC
:1006D0003A660A6802EA0E03C2F3846C92FAA2F246
:1006E000B2FA82F57A6E7A6E002BC2F384622C46DF
:1006F00008BF6446A2420CD17A6E22F000427A66AC
:100700000A6802EA0E03C2F3846C92FAA2F2B2FA09
:1007100082F5BA6EBA6E002BC2F384622C4608BF13
:100720006446A2420CD1BA6E22F00042BA660A6850
:1007300002EA0E03C2F3846C92FAA2F2B2FA82F5D4
:10074000FA6EFA6E002BC2F3846208BF6546AA42B5
:1007500031D1FA6E22F00042FA662CE0062202EA5B
:10076000940205FA02FC0E6807F1600555F8234073
:100770004FF20002C0F2FF3206F0F846224046EA8D
:100780000C06324342F0004245F823200A698B6987
:1007900055F8226026F08076334345F822300A6906
:1007A0000B7F55F82260012B26F0007608BF06F17A
:1007B000007645F82260BA680D68D20750D1CA6841
:1007C000D7F8B0602B466FF3DF4326EA030C4FF6F1
:1007D000FF7602F01804C0F20706E64000242E401F
:1007E000C4F27F0446EA0C06A242C7F8B06037D1D3
:1007F00093B195FAA5F2B2FA82F2013202F01E0329
:10080000092B02F01F0310D801229A4003EB430387
:1008100042EA035315E000BF012202EB956202F0A9
:100820001E030A2B02F01F03EED3012200269A407A
:1008300003EB4303CFF6206606EB03531A4342F063
:100840000073C3F3406607EB86068A687569C3F3D5
:10085000045307249C40A5439A402A4372610D68C3
:100860000021C8F208010D4271D040F2001CC5F20F
:10087000000C4FF4C161674508BF4FF40271B7F136
:10088000A04F08BF4FF4027151F80C400022CCF287
:100890002132954204F0E07E04D01022C9F2C00259
:1008A000954241D1220252D440F20062C5F20002C8
:1008B000974202D0B7F1A04F49D15CF8012022F055
:1008C000E07242EA0E0242F400024CF8012040F2CB
:1008D0000801C2F20001096842F663528909C0F2B8
:1008E0003E52A1FB0212910901EB41010C2202EBE5
:1008F00081010091009951B300990139009100994B
:1009000029B3009901390091009901B30099013987
:1009100000910099D9B100990139009100990029FD
:100920004FF00001E8D113E00022CCF25272954260
:1009300014D10022B2EB1E6F10D15CF8012022F01E
:10094000E07242EA0E0242F080724CF8012000216F
:10095000002280F85820084601B0F0BD0021CCF6F6
:1009600084318D424FF0000108BF14F48002EFD1B2
:10097000B7F1A04F06D06745EAD0674502D00CF525
:10098000C06101E00CF500718A6822F0E07242EA71
:100990000E0242F480028A60D9E7000070B582B08E
:1009A00000210028019153D0C16D39B9044600F0EF
:1009B00021F920460021216684F8581002689168C8
:1009C00089004FF6C071C5F6FF7102D593680B40E0
:1009D00093609368DB002ED4936801F18051194035
:1009E00041F08051916040F20801C2F200010968B3
:1009F00042F663538909C0F23E53A1FB03139909E0
:100A0000022303EB410101910199A1B1019901393F
:100A10000191019979B1019901390191019951B17E
:100A2000019901390191019929B101990139019186
:100A300001990029EAD19168C9000DD4C16D012640
:100A400041F01001C165016E41F00101016604E051
:100A50000126304602B070BD00269368C46D03F0D5
:100A6000040304F010041B19C36D77D123F48173C0
:100A70000233C3659368DB072AD140F2001442F4C5
:100A80008073C5F2000440F2080CA342C5F2000CCA
:100A900040F0A280DCF80040DCF800312343DB07A3
:100AA00016D10CF1F8034FF4E064D0F804E09A4258
:100AB00008BF4FF44074B2F1A04F08BF4FF4407428
:100AC0005CF8043023F47C1343EA0E034CF8043042
:100AD000437FC46BD0E9021544EA43332B4390F8BB
:100AE00024501943012D41EA054306D1816A0025AE
:100AF000CFF6FE7505EB41410B43C46A24B1016B8F
:100B000004F4787529430B43D16844F20705CFF606
:100B1000F07529401943D1601169436B21F04061A0
:100B2000194311619168090743D490F83810037F85
:100B3000490041EA8331D36844F20205AB431943CB
:100B4000D160036914698BB144F480311161D2F82A
:100B5000C01043F6FF75A9430B4310E043F01002A9
:100B60000126C265304602B070BD00BF24F480315A
:100B70001161D2F8C01043F6FF7321EA0303C2F8F3
:100B8000C03090F84010136901290FD140F2FD7177
:100B900023EA010CD0E91135D0E9134143EA0C03F3
:100BA0002B432343194341F0010301E023F00103E8
:100BB00013614169136B012923F00F0302D1016A0C
:100BC00001390B431363C26D012161F30102C26558
:100BD000304602B070BD00BFDCF800E4DCF8003540
:100BE000DCF8004643EA0E032343DB073FF459AF2A
:100BF0006EE7000010B59CB0044600201B90CDE9C4
:100C00001900CDE9170002A85421FFF7E3FB206883
:100C100040F20041C5F20001884243D0B0F1A04F3C
:100C200071D14FF4004002904FF08050139002A811
:100C300000F0E4FB002818BFFFF734FC41F24C0041
:100C4000C4F202000168032441F40051016001680C
:100C500001F4005101910199016841F00401016022
:100C6000016801F0040101910199016841F001015D
:100C70000160006817A900F00100019001980C20A4
:100C800017900020199040F20040C4F6000000F5D3
:100C90008060189400F04EF8CDE917444FF0904072
:100CA0002CE000BF4FF4803002904FF08040149051
:100CB00002A800F0A3FB002818BFFFF7F3FB41F2E6
:100CC0004C00C4F20200016841F4804101600168F7
:100CD00001F4804101910199016841F00201016034
:100CE000006800F00200019001984FF40050179046
:100CF0000320189040F20040C4F600000021199132
:100D000017A900F017F81CB010BD0000B0B50446DC
:100D100000F0F0F8054640F20000C2F20000406822
:100D2000611C18BF044400BF00F0E4F8401BA0425F
:100D3000FAD3B0BD2DE9F04F83B00E68002E00F05D
:100D4000CF8000F1200241F2004C009200F13847C0
:100D5000C4F6000C06224FEAB725604508BF0522FD
:100D6000052D38BF4FEAB722002500274FF00008B5
:100D700001920AE00E6808F1010836FA08F207F15C
:100D8000020705F1040500F0AB80012202FA08FE1B
:100D900016EA0E09EED0D1F804C003220CF0030BC2
:100DA000ABF1010602FA07F4012E6FEA040A11D82A
:100DB0008468CE6804EA0A04BE4034438460446810
:100DC00024EA0E06CCF3001404FA08F42643466025
:100DD00006E000BFBBF1030F02D14FF0030B21E08F
:100DE000C6688C6806EA0A06BC402643BBF1020FBF
:100DF000C66017D16FF00302009B02EA580605F0A7
:100E00001C020F2453F806C004FA02FE0C692CEAF7
:100E10000E0C04FA02F242EA0C029A51D1F804C014
:100E20000CF0030B02680BFA07F302EA0A021A43FA
:100E30001CF4403F02609DD041F26003C4F2020303
:100E40001A6840F2004E42F001021A601A68C4F2B9
:100E5000010E02F001020292029A28F003024FF6FC
:100E6000084C7244CFF6FF7C52F80C3005F00C06AB
:100E70000F24B440A343019C04FA06F6334342F81E
:100E80000C30DEF808204B6842EA090640F20C4CB0
:100E9000DC0258BF22EA0906CEF80860C4F2010C51
:100EA000DCF800209C0242EA090658BF22EA090643
:100EB000CCF80060DEF804209C0342EA090658BF23
:100EC00022EA0906CEF80460DEF80020DB0342EADD
:100ED000090658BF22EA0906CEF800604AE700BFBB
:100EE00003B0BDE8F08F00001823002A08BF2823B4
:100EF000C150704740F28050C2F200000068704755
:100F000040F2000040F28051C2F20000C2F2000143
:100F100040680A68104408607047000080B50320EC
:100F200000F07AF80F2000F009F800281CBF01201B
:100F300080BD00F02BF8002080BD0000B0B540F26D
:100F40000005C2F200056968F1B1044640F20800EC
:100F5000C2F200004FF47A720068B2FBF1F1B0FB0C
:100F6000F1F001F0B7F801460F2C4FF001000AD85C
:100F7000002918BFB0BD4FF0FF302146002200F01D
:100F80001FF800202C60B0BD0120B0BD82B041F23E
:100F90005800C4F20200816841F00101816081685B
:100FA00001F0010101910199016841F08051016056
:100FB000006800F080500090009802B000F014BA71
:100FC00010B54EF60C5CCEF2000CDCF80030C3F32A
:100FD000022E8EF00704042C28BF0424BEF1030364
:100FE0004FF0FF3E0EFA04F438BF0023A1439940AE
:100FF0000EFA03F39A43114300F00F0200F160432D
:101000000901043A03F564436244002848BF02F131
:101010000C03197010BD00004EF60C51CEF2000109
:101020000A684FF6FF031A4060F30A2242F080601C
:1010300040F0FD700860704701220168C0F8D022BE
:10104000002280F8C822B1F8540040F00100A1F855
:101050005400B1F8540040F002020020A1F85420DE
:1010600070470000002804BF01207047F0B581B030
:10107000044690F8910228B9002084F89002204696
:1010800000F0FEF8032084F89102206801F0A0FD32
:1010900094F804E0BEF1000F00F0E0800EF0030CC5
:1010A000BEF1040F4FF0000238D30EF0FC03A4F1A0
:1010B000A0000321012500BFCE1E80F8B0608E1E67
:1010C00080F8D8604E1E80F8006180F828110E1D4F
:1010D000013180F8B15080F8B320C0E93022C0F867
:1010E000C82080F8D95080F8DB20C0E93A22C0F847
:1010F000F02080F8015180F80321C0E94422C0F8B3
:10110000182180F8295180F82B21C0E94E22C0F81F
:101110004021A03099423146CED1F21EBCF1000FE1
:101120002ED004F1100002EB820100EBC105012377
:1011300000F831200021BCF1010F6B70E970C5E9A6
:101140000411A9611CD0551C05EB850600EBC607F0
:10115000BCF1020F7B7000F83650F970C7E904113A
:10116000B9610DD0911C01EB810200EBC203012596
:1011700000F8321000205D70D870C3E90400986157
:10118000BEF1000F6AD0BEF1040F4FF0000235D35C
:101190000EF0FC0003212346CF1E83F850718F1EF2
:1011A00083F878714F1E83F8C8110D1D013183F843
:1011B000512183F85321C3E95822C3F8682183F8E9
:1011C000792183F87B21C3E96222C3F8902183F857
:1011D000A12183F8A07183F8A321C3E96C22C3F88D
:1011E000B82183F8C92183F8CB21C3E97622C3F85B
:1011F000E021A03381422946CED1EA1EBCF1000F86
:101200002CD004F5A87002EB820300EBC307002189
:10121000BCF1010F797000F83320F970C7E90411AF
:10122000B9611BD0531C03EB830700EBC706BCF16D
:10123000020F717000F83730F170C6E90411B16126
:101240000CD0911C01EB810200EBC20300275F7000
:1012500000F83210DF70C3E904779F6194E807005B
:1012600001F0A8FC00200121207384F89112A17ADA
:10127000012903D12046FFF7DFFE002001B0F0BDB9
:1012800010B596B0044601A804305021FFF7A2F82B
:10129000206845F60041C4F20001884202D016B031
:1012A00010BD00BF4FF40050019001A800F0A6F857
:1012B000002818BFFFF7F6F841F25800C4F2020008
:1012C000016841F400010160006800F40000009032
:1012D000009816B010BD000047F21401C4F20001DE
:1012E00051F8142CB0F5007F3CD0002874D1C86EA2
:1012F00002F4C06220F48070B2F5806FC8662FD10E
:1013000051F8140C012262F34A2041F8140C40F207
:101310000800C2F200000068322250434DF683629A
:10132000C4F21B32A0FB0202900C00BF0A685205F7
:1013300011D5421C0FD00A6852050CD558B10A6865
:10134000520508D5012806D00A68520503D502289F
:10135000A0F10400EAD10868400544BF03207047AB
:1013600000207047C86E02F4C06240F48070B2F58D
:10137000806FC866F4D151F8140C012262F34A2040
:1013800041F8140C40F20800C2F20000006832225A
:1013900050434DF68362C4F21B32A0FB0202900C54
:1013A0000A68520511D5421C0FD00A6852050CD5A7
:1013B00058B10A68520508D5012806D00A685205B6
:1013C00003D50228A0F10400EAD10868400544BF13
:1013D00003207047C4E700BF022060F34A2241F8AF
:1013E000142C00207047000047F20800C4F20000EF
:1013F000016841F480410160704700002DE9F0412F
:1014000082B00446807841F288060007C4F20206E2
:1014100002D400202FE000BF56F8300C5FEAC0086D
:101420000BD456F8300C40F0805046F8300C56F88B
:10143000300C00F080500190019847F20007C4F290
:101440000007386840F480703860FFF753FD0546A8
:101450003868C00500F10C81FFF74CFD401B0228E5
:10146000F6D90320B8F1000F05D456F8301C21F04E
:10147000805146F8301C2168CA0717D18A071DD44D
:101480004A0723D40A0729D4CA062FD48A0635D49A
:101490004A063BD40A0641D4CA0547D48A034DD430
:1014A0008A0553D44A0559D467E000BF326863689F
:1014B00022F003021A4332608A07E1D53268A3683A
:1014C00022F00C021A4332604A07DBD53268E36827
:1014D00022F030021A4332600A07D5D532682369F8
:1014E00022F0C0021A433260CA06CFD5326863695F
:1014F00022F440721A4332608A06C9D53268A36961
:1015000022F440621A4332604A06C3D53268E36966
:1015100022F440521A4332600A06BDD53268236A6B
:1015200022F440421A433260CA05B7D53268636A72
:1015300022F440321A4332608A03B1D57269A36A39
:1015400022F003021A4372618A05ABD53268E36A5E
:1015500022F440221A4332604A050ED53268236BCA
:1015600022F440121A43B3F5801F326005D156F8B9
:101570007C2C42F4801246F87C2C0A050ED5326889
:10158000636B22F440021A43B3F5800F326005D139
:1015900056F87C2C42F4801246F87C2CCA040ED5F6
:1015A0003268A36B22F040721A43B3F1807F32603D
:1015B00005D156F87C2C42F4801246F87C2C8A0423
:1015C0000ED53268E36B22F040621A43B3F1006F2C
:1015D000326005D156F87C2C42F4801246F87C2CFF
:1015E0004A040ED53268236C22F040621A43B3F1EC
:1015F000006F326005D156F87C2C42F4801246F818
:101600007C2C0A040ED53268636C22F040521A43D7
:10161000B3F1805F326005D156F87C2C42F4803201
:1016200046F87C2CCA030ED53268A36C22F04042E7
:101630001A43B3F1804F326005D156F87C2C42F446
:10164000803246F87C2C49030ED57169E26C21F496
:1016500040111143B2F5001F716105D156F87C1C91
:1016600041F4801146F87C1C02B0BDE8F08100BF57
:10167000B06810F4407010D0216D88420BD0B06873
:10168000B16820F4407041F48031B160B16821F458
:101690008031B160B060C0070CD1B068216D20F41A
:1016A00040700843B0600020B8F1000F3FF5E3AE92
:1016B000DBE600BFFFF71EFC054641F2883700BF9E
:1016C000B0688007E9D4FFF715FC401BB842F7D992
:1016D000C7E600002DE9F04700285BD042F2000A7F
:1016E000C4F2020A0446DAF800000D4600F00F00CA
:1016F00088420CD2DAF8000020F00F002843CAF824
:101700000000DAF8000000F00F00A84242D1216882
:1017100041F20808C807C4F2020803D1880740F163
:10172000C080A5E0606858F8082C022830D0032853
:1017300034D192012ED5D8F80420D8F8042042F2F2
:101740000043C2F30312D8F804700132C0F2F4036C
:10175000B3FBF2F2C7F30623D8F804705A43C7F379
:101760004163022707EB4303B2FBF3F24BF2004362
:10177000C0F2C4439A4251D9D8F8002012F0F00FB9
:1017800041D089074AD5A168002947D13BE000BF75
:10179000910305D40120BDE8F08700BF5105F9D5BC
:1017A000D8F8001001F00C01042937D0D8F8001047
:1017B00001F00C01082931D0D8F8001001F00C011B
:1017C0000C292BD1D8F80410D8F8041042F20042AA
:1017D000C1F30311D8F804300131C0F2F402B2FBB6
:1017E000F1F1C3F30622D8F804305143C3F3416248
:1017F000022303EB4202B1FBF2F14BF20042C0F2D2
:10180000C44291420AD9D8F80010082262F30711A5
:101810004FF00109C8F8001002E000BF4FF00009C6
:10182000D8F8001021F003010843C8F80000FFF7C2
:1018300061FB064641F28837D8F80000616800F085
:101840000C00B0EB810F07D0FFF754FB801BB842B0
:10185000F2D90320BDE8F0872168880708D4B9F1E0
:10186000000F1ED0D8F8000020F0F00017E000BFF5
:10187000480705D5D8F8000040F4E060C8F800003B
:10188000080706D5D8F80000072262F30D20C8F833
:101890000000D8F80000A26820F0F0001043C8F85B
:1018A0000000DAF8000000F00F00A8421BD9DAF8B7
:1018B000000020F00F002843CAF80000FFF71AFBD1
:1018C000064641F2883700BFDAF8000000F00F004A
:1018D000A84207D0FFF70EFB801BB842F4D90320C3
:1018E000BDE8F0872168480707D5D8F80000E2680E
:1018F00020F4E0601043C8F80000080708D5D8F8C5
:101900000000216920F4605040EAC100C8F80000DE
:10191000D8F8000000F00C00042842F20040C0F2A9
:10192000F40024D0D8F8001001F00C0108291ED0D2
:10193000D8F8001001F00C010C2917D1D8F80410C8
:10194000D8F80410D8F80420C1F303110131B0FB1A
:10195000F1F0C2F30621D8F804204843C2F34161F4
:10196000022202EB4101B0FBF1F000E00020D8F8C8
:10197000001043F25812C1F30311C0F60002515C8B
:1019800040F2080201F01F0120FA01F140F20000CC
:10199000C2F200000068C2F200021160BDE8F04728
:1019A000FFF7CCBA40F2080041F20801C2F2000091
:1019B000C4F202010068096843F26812C1F302210F
:1019C000C0F60002515C01F01F01C84070470000E2
:1019D00040F2080041F20801C2F20000C4F2020124
:1019E0000068096843F26812C1F3C221C0F6000220
:1019F000515C01F01F01C8407047000041F20C012A
:101A0000C4F2020151F8040C00F00C00042842F268
:101A10000040C0F2F40008BF704751F8042C02F0F7
:101A20000C02082A1AD051F8042C02F00C020C2ADD
:101A30001CBF002070470A680A680B68C2F30312D3
:101A40000132B0FBF2F00968C3F306225043C1F340
:101A50004161022202EB4101B0FBF1F0704700004E
:101A6000002804BF012070472DE9F04182B00446F0
:101A7000007841F20006C007C4F202061ED12078A9
:101A800080073DD42078000764D42078400700F117
:101A900087802078800600F1D980E569002D00F06C
:101AA0004282B06800F00C000C2840F03181012D1A
:101AB00040F08E81012002B0BDE8F081B06800F0F6
:101AC0000C01F068082961D0032281F00C0122EAA0
:101AD00000000844B0FA80F0400957D161683068CE
:101AE000B1F5803F07D0B1F5A02F40F0E38040F47E
:101AF00080203060306840F480303060E4E000BF27
:101B0000B068F16800F00C00042871D001F0030106
:101B100080F00C0081F002010844B0FA80F0400926
:101B200066D1E1683068002900F0E08040F4807000
:101B30003060FFF7DFF905463068400500F10A81A3
:101B4000FFF7D8F9401B0228F6D9032002B0BDE800
:101B5000F08100BF6169D6F89400002900F09480FC
:101B600040F00100C6F89400FFF7C4F9054600BF35
:101B7000D6F8940080073FF588AFFFF7BBF9401B0C
:101B80000228F5D9032002B0BDE8F0813068800357
:101B90007FF575AF606800287FF471AF3EE000BF4D
:101BA000B06D5FEAC00808D4B06D40F08050B065F9
:101BB000B06D00F080500190019847F20007C4F228
:101BC00000073868C0052DD4386840F4807038604C
:101BD000FFF790F9054600BF3868C00522D4FFF72B
:101BE00089F9401B0228F7D9032002B0BDE8F08133
:101BF0003068400501D5E06880B17068216920F047
:101C0000FE4040EA0160706040F20000C2F2000055
:101C10000068FFF793F900283FF434AF012002B0C9
:101C2000BDE8F081A168D6F89000012908D0052907
:101C300040F0AE8040F00400C6F89000D6F8900066
:101C400040F00100C6F89000AEE000BFA169D6F8F0
:101C50009800002900F0868040F00100C6F8980046
:101C6000FFF748F9054600BFD6F8980080073FF512
:101C700014AFFFF73FF9401B02284FF00300F3D9E0
:101C800002B0BDE8F08100BF20F00100C6F894006A
:101C9000FFF730F9054600BFD6F8940080077FF5BE
:101CA000F4AEFFF727F9401B0228F5D9032002B054
:101CB000BDE8F08120F4803030603068002920F4E5
:101CC0008020306000F0BE80FFF714F9054600BFA9
:101CD000306880033FF5D3AEFFF70CF9401B642852
:101CE000F6D9032002B0BDE8F08100BF20F4807077
:101CF0003060FFF7FFF80546306840057FF5C2AE5B
:101D0000FFF7F8F8401B02284FF00300F4D9B7E7BB
:101D1000306820F080703060FFF7ECF8022D054647
:101D20000CD100BF3068800140F1B880FFF7E2F8C5
:101D3000401B02284FF00300F4D9A1E7306880016E
:101D400040F1EA80FFF7D6F8401B02284FF003006D
:101D5000F4D995E77068216920F0FE4040EA0160FF
:101D600070608FE620F00100C6F89800FFF7C2F817
:101D7000054600BFD6F8980080077FF58EAEFFF7C6
:101D8000B9F8401B02284FF00300F3D978E700BFF1
:101D900020F00100C6F89000D6F89000002920F04D
:101DA0000400C6F890005DD0FFF7A4F8054641F2A4
:101DB000883700BFD6F89000800765D4FFF79AF8FF
:101DC000401BB842F6D9032002B0BDE8F08100BF45
:101DD000F068216A00F003028A427FF41FAF626A52
:101DE0006FF00F0300F0F00103EB021291427FF459
:101DF00015AFA16A00F4FE42B2EB012F7FF40EAFE3
:101E0000E16A00F07842B2EBC16F7FF407AF226B5A
:101E10000023CFF6E07303EA025200F4C001A2F5FA
:101E2000001291427FF4FAAE616B4FF07E4202EAFB
:101E3000016100F0C06001F17E4188427FF4EEAEA6
:101E400071E000BFFFF756F8054600BF3068800319
:101E50007FF515AEFFF74EF8401B64284FF00300E6
:101E6000F4D90DE7FFF746F8054641F2883700BF81
:101E7000D6F89000800707D5FFF73CF8401BB84222
:101E80004FF00300F4D9FBE6B8F1000F3FF501AEC7
:101E9000B06D20F08050B065FBE500BFF06848F2FF
:101EA0000C01C0F29F1104F1200700EA010C8ECF53
:101EB0006FF00F00D4E90C5400EB02100022CFF6B3
:101EC000E07241EA0C0102EA05520843A2F5001251
:101ED0004FF07E4540EA032005EA0465104305F112
:101EE0007E4540EAC7602843F060306840F080706B
:101EF0003060F06840F08070F060FEF7FBFF044651
:101F0000306880010FD4FEF7F5FF001B02284FF068
:101F10000300F5D9B4E600BFF0684FF6FC71CFF6C8
:101F2000EE610840F060002002B0BDE8F0810000E2
:101F3000002804BF01207047416A19B100210161E6
:101F4000142104E04168B1F5827F02D01C210022F7
:101F50004250B0B50025856290F85D1029B980F82F
:101F60005C50044600F056F82046022180F85D10CF
:101F70000168D0F80CE00B68BEF5E06F23F0400379
:101F80000B6098BF01254EF40063B3F5706F4FEA04
:101F9000053C1CBF00258562D0E90154D0E904321C
:101FA00005F4827504F404442C4403F00203234432
:101FB000846902F00102C5691A4404F400731A44EA
:101FC00005F03803056A1A4405F08003856A1A444F
:101FD00005F400531A430A600422436A0EF4706544
:101FE00002EA1442446B45EA0C0503F010032A434D
:101FF00004F008041A4322434A60CA6922F40062CA
:10200000CA6100210122016680F85D20BDE8B04070
:102010000846704780B586B0006843F60041C4F2B8
:10202000000188424FF000010591CDE90311CDE98F
:10203000011123D043F20001C4F20101884246D1CC
:1020400041F24C00C4F202004169382241F480514F
:102050004161416901F4805100910099016841F0AA
:10206000020101600068052100F002000090009864
:1020700040F20040C4F600001FE000BF41F24C00F7
:10208000C4F20200C1684FF4A05241F40041C160A3
:10209000C16801F4004100910099016841F0040118
:1020A00001600068062100F004000090009840F2F2
:1020B0000040C4F6000000F5806001920222029206
:1020C0000022059101A9CDE90322FEF733FE06B0F7
:1020D00080BD0000411E0020B0EB116F1CBF01202D
:1020E00070474EF21002CEF2000251604EF62351BC
:1020F000CEF20001F0230B70072190601160704751
:1021000090F88410012904BF022070472421C0F8F0
:10211000881001680A680B6822F0005223F001035E
:102120000B60002343660A602021C0F8881080F805
:10213000843000207047000090F88420012A04BFFA
:1021400002207047B0B52422C0F888200268D0F879
:1021500064E0D2F800C01368BEF1000F23F0010361
:102160001360936823F0606341EA0301916019D022
:102170009368916843F2981E490FC0F6000E43F22F
:10218000A0151EF80140C0F60005695CC3F3426368
:10219000E400B4FBF1F11EF80340EB5CE500B5FB95
:1021A000F3F301E001210123A0F86A102021A0F837
:1021B0006830C2F800C0C0F88810002180F8841090
:1021C0000020B0BD90F88420012A04BF022070478F
:1021D000B0B52422C0F888200268D0F864E0D2F8B4
:1021E00000C01368BEF1000F23F001031360936871
:1021F00023F0604341EA0301916019D0936891682C
:1022000043F2981E490FC0F6000E43F2A0151EF8C7
:102210000140C0F60005695CC3F34263E400B4FB0F
:10222000F1F11EF80340EB5CE500B5FBF3F301E0D0
:1022300001210123A0F86A102021A0F86830C2F81B
:1022400000C0C0F88810002180F884100020B0BDC4
:1022500010B5D0B10446D0F8880028B9002084F821
:102260008400204600F026F82420C4F88800206866
:10227000A16A026822F00102026011B1204600F05A
:1022800079F8204600F0A0F910B1012010BD00BF80
:102290002168486820F490404860886820F02A004F
:1022A0008860086840F0010220460A60BDE81040DE
:1022B00000F0D4B810B59CB0044600201B90CDE9C6
:1022C0001900CDE9170002A804305021FEF782F86A
:1022D000206848F20001C4F20001884202D01CB01C
:1022E00010BD00BF2020029002A8FFF787F8002849
:1022F00018BFFEF7D7F841F24C00C4F202000169A2
:1023000041F001010161016901F0010101910199AF
:10231000016841F002010160006817A900F00200A5
:10232000019001984FF4406017900220189000200F
:10233000CDE9190008201B9040F20040C4F60000CF
:10234000FEF7F8FC1CB010BDFEE70000FEE7000041
:10235000FEE700007047000070470000FEF7D0BDA8
:102360004EF68850CEF20000016841F47001016021
:1023700070470000816A0A070CD4CA0715D18A0782
:102380001ED44A0727D4CA0630D48A0639D44A064E
:1023900042D457E00268D0F838C0536823F40043B1
:1023A00043EA0C035360CA07E9D00268D0F82CC096
:1023B000536823F4003343EA0C0353608A07E0D5E3
:1023C0000268D0F830C0536823F4803343EA0C032A
:1023D00053604A07D7D50268D0F834C0536823F455
:1023E000802343EA0C035360CA06CED50268D0F8B6
:1023F0003CC0936823F4805343EA0C0393608A063D
:10240000C5D50268D0F840C0936823F4005343EA6E
:102410000C0393604A0615D5D0F800C0436CDCF875
:102420000420B3F5801F22F4801242EA0302CCF8A4
:10243000042007D1DCF80420836C22F4C0021A4384
:10244000CCF80420090658BF70470168C06C4A6880
:1024500022F400221043486070470000B0B582B0FB
:1024600004460020C4F89000FEF744FD21680546AC
:102470000A68120737D56FF07E4C20464FF40011E2
:1024800000222B46CDF800C000F0F8F950B300BF91
:10249000206850E8000F216820F0800041E8000229
:1024A000DAB1206850E8000F216820F0800041E890
:1024B000000292B1206850E8000F216820F08000EF
:1024C00041E800024AB1206850E8000F216820F07E
:1024D000800041E80002002ADAD10320202188226E
:1024E0006BE000BF2168086840075DD56FF07E4C47
:1024F00020464FF4800100222B46CDF800C000F0AA
:10250000BDF9002850D000BF206850E8000F2168B6
:1025100020F4907041E80002BAB3206850E8000F40
:10252000216820F4907041E8000272B3206850E8FE
:10253000000F216820F4907041E800022AB320685F
:1025400050E8000F216820F4907041E80002002A52
:10255000DAD11AE0206850E8020F216820F001006B
:1025600041E80202DAB1206850E8020F216820F049
:10257000010041E8020292B1206850E8020F216890
:1025800020F0010041E802024AB1206850E8020F41
:10259000216820F0010041E80202002ADAD103207C
:1025A00020218C2209E000BF2020C4F88800C4F854
:1025B0008C00002170220020E166A150002184F8E7
:1025C000841002B0B0BD000070B5054605F10804E6
:1025D0001ECC0068194341EA0403EE69046846F61C
:1025E000F311CCF6FF71214019433143016041687A
:1025F00048F2000C21F4405111434160AA69C4F231
:10260000000C60451CBF296A0A4381684FF2FF43F2
:10261000C1F2FF13194011438160C16AD5F824E06B
:1026200021F00F0141EA0E01C16244F6FF71C4F2CC
:10263000000188424FF0100318DC44F20041C4F25C
:102640000001884228D044F60001C4F2000188420B
:1026500032D044F60041C4F20001884242D141F236
:102660008801C4F2020109688B0933E045F20001D8
:10267000C4F20001884217D0604525D043F600011E
:10268000C4F2010188422DD141F28801C4F2020155
:102690000B6876A222E000BF41F28801C4F2020179
:1026A00009688B0816E000BF41F28801C4F20201FC
:1026B00009680B0A0EE000BF41F28801C4F2020172
:1026C00009680B0906E000BF41F28801C4F202016B
:1026D00009688B0A43F28812C0F6000203F0030176
:1026E00052F82130604542F20040C0F2F40015D0AB
:1026F000B6F5004F22D1082B4FF0010100F2AD805A
:10270000DFE803F0065C74AB64ABABAB720000BFF8
:10271000FFF748F9002840F05D809AE0082B4FF061
:10272000010100F29A80DFE803F0059825981B98D4
:1027300098982300FFF736F9B0B98AE0082B4FF0DC
:10274000010100F28A80DFE803F0053D6F884988C7
:1027500088886D00FFF726F9002842D179E000BF94
:10276000FFF74CF9002874D0D5F824E002E000BF50
:102770004FF4004043F27011C0F6000131F81E1012
:102780006A68B0FBF1F002EB420188424FF00101B0
:1027900063D31303984260D8010E000210EB52007D
:1027A00041F100010023FDF79DFD4FF60052A0F519
:1027B0004071C0F20F02914249D34DE0FFF708F992
:1027C00040B946E0FFF704F958B942E0FFF716F9BF
:1027D00000283ED0D5F824E008E000BFFFF70EF94E
:1027E000B8B3D5F824E01FE04FF4004043F2701175
:1027F000C0F6000131F81E106A68B0FBF1F0510814
:1028000001EB4000B0FBF2F04FF6EF72A0F11001C7
:10281000914221D84FF6F0710140C0F342000844C4
:1028200015E000BF4FF4004043F27011C0F6000104
:1028300031F81E104FF6EF72B0FBF1F0696800EB53
:102840005100B0FBF1F0A0F11001914204D82968C9
:10285000C860002101E000BF01214FF00110A8660F
:10286000002208466A67AA6770BD00BF0100000029
:102870000400000002000000080000002DE9F04103
:10288000804600681546C2690E461140891BB1FAA0
:1028900081F14909A94223D1069C2CB3611C29D19D
:1028A000C1693140891BB1FA81F14909A94217D1A7
:1028B000C1693140891BB1FA81F14909A9420FD19F
:1028C000C1693140891BB1FA81F14909A94207D197
:1028D000C1693140891BB1FA81F14909A942DFD0B0
:1028E0000020BDE8F08100BFFEF704FB0320BDE837
:1028F000F08100BF1F4607E0C0693040801BB0FA7E
:1029000080F04009A842EBD1FEF7F4FAC01BA042C8
:1029100000F2AE80D8F8000001684907ECD5402EDF
:10292000EAD0802EE8D0C169090700F1A580C1690D
:102930000905E1D54FF400610162D8F8000050E8C4
:10294000000FD8F8001020F4907041E800020AB39C
:10295000D8F8000050E8000FD8F8001020F490706C
:1029600041E80002B2B1D8F8000050E8000FD8F8F2
:10297000001020F4907041E800025AB1D8F800002D
:1029800050E8000FD8F8001020F4907041E80002E1
:10299000002AD2D14FF6FE70CEF6FF70D8F80010A4
:1029A00051E8021FD8F80020014042E80213F3B1B9
:1029B000D8F8001051E8021FD8F80020014042E882
:1029C0000213A3B1D8F8001051E8021FD8F8002074
:1029D000014042E8021353B1D8F8001051E8021F39
:1029E000D8F80020014042E80213002BD6D1D8F8D5
:1029F0006C0001282CD1D8F8000050E8000FD8F85E
:102A0000001020F0100041E800020AB3D8F80000DE
:102A100050E8000FD8F8001020F0100041E8000244
:102A2000B2B1D8F8000050E8000FD8F8001020F03C
:102A3000100041E800025AB1D8F8000050E8000F39
:102A4000D8F8001020F0100041E80002002AD2D18E
:102A500020200021C8F88C00C8F86C10C8F8741049
:102A6000C8F89000032088F88410BDE8F08100BF0A
:102A70000320BDE8F08100BF08210162D8F8000002
:102A800050E8000FD8F8001020F4907041E80002E0
:102A90000AB3D8F8000050E8000FD8F8001020F46E
:102AA000907041E80002B2B1D8F8000050E8000F81
:102AB000D8F8001020F4907041E800025AB1D8F81C
:102AC000000050E8000FD8F8001020F4907041E8A2
:102AD0000002002AD2D14FF6FE70CEF6FF70D8F871
:102AE000001051E8021FD8F80020014042E802130C
:102AF000F3B1D8F8001051E8021FD8F800200140C7
:102B000042E80213A3B1D8F8001051E8021FD8F828
:102B10000020014042E8021353B1D8F8001051E8F8
:102B2000021FD8F80020014042E80213002BD6D142
:102B3000D8F86C0001282CD1D8F8000050E8000F1C
:102B4000D8F8001020F0100041E800020AB3D8F8CD
:102B5000000050E8000FD8F8001020F0100041E805
:102B60000002B2B1D8F8000050E8000FD8F8001009
:102B700020F0100041E800025AB1D8F8000050E8F7
:102B8000000FD8F8001020F0100041E80002002AE1
:102B9000D2D12020C8F88C0000200821C8F86C0091
:102BA000C8F87400C8F8901088F884000120BDE8C7
:102BB000F081000001460120A1F840000022002021
:102BC000A1F84020A1F84420A1F85020704700004F
:102BD0000146B0F8400044F27F0202400020A1F814
:102BE00040207047FEE7000094B0FEF797F90024FC
:102BF0000020CDE90A44CDE90844FEF76DFB212011
:102C000006904FF480300421079001200F91552148
:102C10000C900220109106210D900325CDE9111092
:102C2000139006A80E95FEF71BFF28B1EFF3108056
:102C300072B600BFFEE700BF0F20CDE9010501A875
:102C40000421CDE9034405944FF0040AFEF742FD48
:102C500020B1EFF3108072B6FEE700BF002441F20E
:102C60004C000A94CDE90844CDE90644C4F20200C0
:102C7000016840F6000B41F0040101600168C4F6F0
:102C8000000B01F00401019101990168002241F05B
:102C90002001016001684EF6200601F0200101913B
:102CA0000199016841F001010160016801F0010131
:102CB00001910199016841F002010160016801F090
:102CC000020101910199016841F008010160006869
:102CD0004EF6200100F00800019001985846FEF7DA
:102CE00003F94FF0904004210022FEF7FDF8ABF508
:102CF000806948464FF440410022FEF7F5F80BF595
:102D00008060042100220090FEF7EEF80696012074
:102D100006AE0790584631460125CDE90844FEF736
:102D200009F84FF00308022758463146CDF81880BD
:102D3000CDE90774CDE90947FDF7FCFF4FF090405E
:102D40003146CDE906A54FF0010ACDE90844FDF76B
:102D5000F1FF082006904FF488154FF0904031465F
:102D6000CDE90754FDF7E6FFF020CDE906084FF066
:102D7000904031460894FDF7DDFF1020CDE90605AF
:102D8000584631460894FDF7D5FF40F20710CDE9CB
:102D90000605484631460894FDF7CCFF4FF48050B5
:102DA000CDE906070D200A9048463146CDE908488E
:102DB000FDF7C0FF4FF44040CDE9060A48463146D2
:102DC000CDE90844FDF7B6FFC020CDE90607584617
:102DD0003146CDE908440A97FDF7ACFF06204FF4D1
:102DE00080750A9058463146CDE90657CDE908442A
:102DF000FDF7A0FF08204FF4007A4FF012080A9068
:102E000058463146CDF818A0CDE907840994FDF75E
:102E100091FF4FF090403146CDE90658CDE9084486
:102E20000A97FDF787FF4FF4C060CDE9060707203A
:102E30000A904FF090403146CDE90844FDF77AFF03
:102E40004FF40040CDE906074FF090403146CDE900
:102E500008440A97FDF76EFF009804254FF001081B
:102E600031460695CDE907840994FDF763FFC0203C
:102E7000CDE9060748463146CDE908440A97FDF7F3
:102E800059FF0A200A9048463146CDE906A7CDE908
:102E90000844FDF74FFF40F27000C2F200004FF00F
:102EA000A041CDE90244CDE90C44C0E90014C0E9D9
:102EB0000244C0E9044485618483C0F8208080F81E
:102EC0002440C0E90B4480F83840C46380F8404097
:102ED000FDF764FD20B1EFF3108072B6FEE700BF8E
:102EE00040F27000C2F2000001A90194FDF7E0FA7F
:102EF00020B1EFF3108072B6FEE700BF40F2001081
:102F0000C2F280100690062007907F20099040F2C0
:102F1000700000240425C2F2000006A90894CDE93F
:102F20000A54FDF75FFB28B1EFF3108072B600BFC3
:102F3000FEE700BFABF17840A0F5806140F2DC0015
:102F4000C2F20000C0E900140121CDE90244CDE93C
:102F50000C44C0E90244C0E90444856184830162F1
:102F600080F82440C0E90B4480F83840C46380F8FE
:102F70004040FDF713FD28B1EFF3108072B600BF9B
:102F8000FEE700BF40F2DC000024C2F2000001A90D
:102F90000194FDF78DFA28B1EFF3108072B600BFEF
:102FA000FEE700BF2020C1F2F04006900620CDE9E8
:102FB00007047F2009900420CDE90A0440F2DC00D8
:102FC000C2F2000006A9FDF70DFB28B1EFF3108057
:102FD00072B600BFFEE700BF43F60044C4F200042F
:102FE00040F2481004F58841C2F2000043F2243256
:102FF00000230C27C0F2030280E80E00C0E903336F
:10300000C0E90573C0E908338362FFF721F928B1ED
:10301000EFF3108072B600BFFEE700BF40F2481029
:10302000C2F200000021FFF7CDF828B1EFF31080C5
:1030300072B600BFFEE700BF40F24810C2F20000C7
:103040000021FFF779F818B1EFF3108072B6FEE7B0
:1030500040F24810C2F20000FFF752F820B1EFF33F
:10306000108072B6FEE700BF40F2DC1004F500519C
:10307000C2F2000001604FF402718180022100273A
:10308000C1718760FDF7EEFF20B1EFF3108072B6DB
:10309000FEE700BF40F2B84004F57441C2F2000000
:1030A0004FF4827A4FF440794FF4007818220726C3
:1030B0000825C0E9001AC0E90279C0E90477C0E92F
:1030C0000682C0E90877C0E90A76C0E90C75FEF708
:1030D0002FFF18B1EFF3108072B6FEE740F21C50DC
:1030E000C2F200004FF4004100221023C0E9004A60
:1030F000C0E90219C0E90422C0E90683C0E9082238
:10310000C0E90A26C0E90C25FEF712FF20B1EFF353
:10311000108072B6FEE700BF584620210122FDF75D
:10312000E3FE4FF47A70FDF7F1FD584620210022AE
:10313000FDF7DAFE4FF47A70FDF7E8FDECE7F1EE0B
:10314000100A4FF6FF71C0F2C03120EA010040F0D2
:103150004070E1EE100A704700000000000000001F
:10316000010203040607080900000000010203042D
:10317000010002000400060008000A000C00100014
:10318000200040008000000100000000040000005A
:103190000200000008000000010101030701000017
:1031A0000804020408010101C831000800000020E1
:1031B000100000003C020008D83100081000002078
:1031C000780B00005C020008100000000100000005
:0831D0000024F40000000000DF
:04000005080001D915
:00000001FF
